:1000000005308A00AB2D00000A108A100A11820701
:1000100028340C34013406340A108A100A1182077D
:100020003734383439342F343434353436342A3490
:100030003134323433342D34433430343D342B3482
:100040002010201020000C2841294F10C422A0228B
:10005000CD22D223452700018C2253284529412750
:10006000C427202AC521CC2000010C2AC521CC2080
:100070002028D222D3244F2741224105D02A4522CD
:100080004510D322C72A492900000C2AF230EE3944
:10009000E33A723969326F1D20000C2AF230EE39D2
:1000A000E33A723969326F1D20000C2AF230EE39C2
:1000B000E33A723969326F1D20008C24EE33F2323C
:1000C000F3307210ED37F437721D20008C24EE33BC
:1000D000F232F3307210ED37F437721D20008C26A7
:1000E0006F3A6F3920376F3A203B61366932000131
:1000F0008C29C5233A1000010C2B41264F292027BB
:100100004F10D620CC24C42700008C264F2A4F291C
:100110003A1025367510D322471DA012EC3A000084
:1001200044308400831300080319A3280630F80024
:10013000F701F70B9928F80B98287B30F700F70B9D
:100140009F28800B962808004B0EF039F7000F30DF
:10015000070577048700000007140230F700F70B4B
:10016000AF28B2280000071008000708F700070EA4
:100170000F39F800080087100F3083160705F03894
:10018000870083120715000007140000B5207808C7
:10019000CB00071000000714CD28CE280000B520A2
:1001A0007808CA0007100F308316070587008312EE
:1001B0004B0EF700F030F70577084A04F80078088E
:1001C000CA00CA1BBC28481C8710481887140000A6
:1001D000071100000710490ECA000F30CA054A086F
:1001E000CB00A42049080F39CA00CB00A420080086
:1001F0000F30831607058700071087100711831239
:100200008710071107100F30C40090200130B40090
:100210003408033C031C14290330CB00A420053010
:10022000C4009020B40A08290230CB00A420B401F5
:100230003408033C031C252934080420B500C801F8
:100240003508C900BB20B40A18298A110A12C32D27
:100250008A110A12C42D450B2E2931294030C600BF
:100260003229C60101304402C60746088038C7005B
:10027000C8014708C900BB20080043080C3A03190D
:100280004829063A03195029023A031956295B29CD
:10029000C8010130C900BB200230C4009020602991
:1002A0000130C4000230C5002B216029C801103084
:1002B000C900BB2060290130C8004308C900BB2029
:1002C00008000B08C0008B13831603178C170C143F
:1002D0000000000083120313C01B8B1703170C08C8
:1002E0007F390319B5290313C00003170D08031341
:1002F000C10003170F080313C2004008C3003D21CB
:10030000410803178D000313420803178F000313DE
:100310000B08C3008B13831603178C170C140000F3
:10032000000083120313C31B8B1703170C0D0E0D54
:100330007F390319B5290313C00003170D080313F0
:10034000C10003170F080313C2004008C3003D217A
:10035000410803178D000313420803178F008D0A0D
:1003600003198F0A03136129031703130800C1013E
:10037000A10A2108213C0318172A2408FC3E03186F
:10038000DA29043E202AEF30831686008312860085
:10039000DA29DF308316860083128600DA29BF301F
:1003A0008316860083128600DA297F308316860042
:1003B00083128600221CE62906080F390F3C031D14
:1003C000E52922102308C100A301162A06080F39C7
:1003D0000F3C0319112A06080139031DF129C20136
:1003E000052A06080239031DF8290130C200052A32
:1003F00006080439031DFF290230C200052A060839
:100400000839031D052A0330C200420DF700F70D1D
:10041000FC30F705770824070C20F800A30022140D
:10042000162AA40A2408043C0319A401A101FF30E0
:100430008316860083124108F8008A110A12292ABD
:100440000A108A140A118207C329C929CF29D5297C
:10045000B7297808C000C0080319282A4008F80006
:1004600008002030D500D101D201D301D4014C08BD
:10047000FA004B08F9004A08F8004908F700031091
:10048000771C502A4D08D1074E0803184E0FD2078B
:100490004F0803184F0FD30750080318500FD40705
:1004A000D40CD30CD20CD10CFA0CF90CF80CF70CC0
:1004B000D50B3F2A08003408C4003508C5002B219D
:1004C000B701B601B801B901BA01BB01BC01BD0158
:1004D00028227808BE003E082F3C03187D2A3E08DB
:1004E000393C031C7D2A38303D07840083133E08C5
:1004F0008000BD0A3E08C3003D213E082D3C031D7F
:100500009B2ABD0803199B2ABD0338303D07840090
:10051000831380013D083407C000C4003508C500BE
:100520002B212030C3003D213D083407C000C4000A
:100530003508C5002B213E08433C031DB92ABD08E0
:100540000319B92ABD01B801B901BA01BB01BC0147
:100550003408C4003508C5002B21203003178D0056
:1005600000308F00031361213408C4003508C50032
:100570002B213E083D3C031DC02ABD08031DC42A93
:100580003D08043C0318682ABF013D083F020318D8
:10059000252B38303F078400831330300002C00021
:1005A00001303D02F8003F087802C1000A30C20065
:1005B0004108C300C701C601C5010130C400C8011C
:1005C000430848020318FC2A4708CC004608CB0021
:1005D0004508CA004408C900D001CF01CE01420835
:1005E000CD0031227A08C7007908C6007808C50016
:1005F0007708C400C80AE02A4408F7004508F80054
:100600004608F9004708FA00C2010408C100421078
:10061000831B4214CC01CB01CA014008C9007A08EF
:10062000D0007908CF007808CE007708CD003122BD
:10063000410884008313421883177708B6077808A7
:100640000318780FB707BF0AC52A3608F80037081D
:10065000F90008001030B800F701FA01B50CB40C2D
:10066000031C382B3608F7070318FA0A3708FA076D
:10067000FA0CF70CF90CF80CB80B2E2B08000B0831
:10068000B5008B13831603178C170C1400000000A1
:1006900083120313B51B8B170318762B03170C0853
:1006A0007F390313B50003170D080313B6000317B2
:1006B0000F080313B7003508C3003D2136080317A0
:1006C0008D000313370803178F0003130B08B800BE
:1006D0008B13831603178C170C1400000000831271
:1006E0000313B81B8B17B40B762B952B03170C0D2C
:1006F0000E0D7F390313B50003170D080313B60061
:1007000003170F080313B7003508C3003D2136084F
:1007100003178D000313370803178F008D0A031981
:100720008F0A03100313B40B3F2B0800BF0104080A
:10073000BE003F10831B3F14380EF038BA00BA07D2
:10074000E23EBB00323EBD0038080F39BB07BB0795
:10075000BD07E93EBC00BC07BC07370E0F39BC071C
:10076000BD07BC0DBD0DBD09BD0D37080F39BD0757
:10077000BA0D0730B9000A30BD07BC03031CBC2BFF
:10078000BC07BB03031CC02BBB07BA03031CC42B51
:10079000BA07B903031CC82B393084008313073010
:1007A0003E053E1384073D30040203193E1700083E
:1007B000F700031DE32B3E1BE32B3E1AF52BBE195E
:1007C000E32B2030E62BBE153E123030F707B80180
:1007D0000408B7003810831B38147708C3003D2184
:1007E00037088400831338188317840A3E1FD32BDD
:1007F0000800831688158312881D1D2C23300317CB
:100800008D0000308F0003136121831608108312BE
:10081000081083168810831288108316081283121A
:1008200008120630B800FA30C4009020B80B132C20
:100830008316881583128819182C2C3003178D0005
:1008400000308F000313612128227808B70035306B
:1008500003178D0000308F00031361210430B800AE
:10086000FA30C4009020B80B302C0800F801F901D0
:10087000F701FA013A08031D402C390803195A2CD4
:100880001030BB000310B70DB80DF70DFA0D3A0884
:100890007A02031D4D2C39087702031C562C3908A7
:1008A000F702031CFA033A08FA020314F80DF90DD3
:1008B000BB0B422C0800453003178D0000308F0021
:1008C00003136121B601B50136082802031CAB2CC5
:1008D000031D6E2C270835020318AB2C0130C40011
:1008E0000230C5002B210A30C3003D2110308400A6
:1008F0002C08B8002B08B70096238316881583129E
:10090000881D852CF923AB2C8C2C831608108312A0
:1009100008146430C40090203608B8003508B700C9
:10092000BA010A30B90036247708B7007A08B8004F
:10093000B708031DA72CB808031DA72CB508031D75
:10094000A42CB6080319A72CAB0A0319AC0AB50AE4
:100950000319B60A642C8316081083120810AC0120
:10096000AB018A110A12BB2E4D3003178D000030E7
:100970008F0003136121B601B50136082802031C5C
:10098000392D031DC72C270835020318392D0130D6
:10099000C4000230C5002B210A30C3003D211030B5
:1009A00084002C08B8002B08B700962383168815FE
:1009B0008312881DDD2CF923392D36082E02031CE5
:1009C000EF2C031DE72C2D0835020318EF2C83169E
:1009D0008810831288146430C40090201A2D3608C1
:1009E0003002031C012D031DF92C2F0835020318BA
:1009F000012D83168810831288106430C400902063
:100A00001A2D36083202031C132D031D0B2D31083D
:100A100035020318132D831688108312881464304E
:100A2000C40090201A2D8316881083128810643019
:100A3000C40090203608B8003508B700BA010A3063
:100A4000B90036247708B7007A08B800B708031D44
:100A5000352DB808031D352DB508031D322DB608F8
:100A60000319352DAB0A0319AC0AB50A0319B60AE6
:100A7000BD2C8316881083128810AC01AB018A113B
:100A80000A12BB2E553003178D0000308F00031360
:100A90006121B601B50136082802031CA42D031DEF
:100AA000552D270835020318A42D0130C40002304B
:100AB000C5002B210A30C3003D21103084002C08D2
:100AC000B8002B08B7009623831688158312881D5B
:100AD0006C2DF923A42D852D2B080139B700B80101
:100AE000B708031D7E2DB808031D7E2D831608123E
:100AF000831208166430C4009020852D83160812D6
:100B0000831208126430C40090203608B8003508FB
:100B1000B700BA010A30B90036247708B7007A085E
:100B2000B800B708031DA02DB808031DA02DB508F7
:100B3000031D9D2DB6080319A02DAB0A0319AC0A9D
:100B4000B50A0319B60A4B2D831608128312081230
:100B5000AC01AB01080003081F398300FF30A0007F
:100B6000AC01AB0183161F149F141F159F11073092
:100B70009C0083138312A1012210A301A4018316F8
:100B800081138312F82828295D3003178D00003067
:100B90008F0003136121663003178D0000308F0032
:100BA000031361210130B4000230B5005B227908E3
:100BB000AA007808A9003310AA08031DE82D290807
:100BC000033C031CE82DA908031DE92DAA080319FD
:100BD0003314331CF92D6F3003178D0000308F0054
:100BE000031361210430B400FA30C4009020B40B28
:100BF000F42D3318CB2D783003178D0000308F0083
:100C0000031361210130B4000230B5005B22790882
:100C1000A6007808A5003310A608031D182E250885
:100C2000783C031C182EA508031D192EA6080319CD
:100C30003314331C292E7C3003178D0000308F00B5
:100C4000031361210430B400FA30C4009020B40BC7
:100C5000242E3318FB2D2608B5002508B400B70153
:100C60000A30B6002A237908A8007808A700280CC3
:100C7000AE00270CAD00AE0CAD0C3F30AE0503103E
:100C80002D0DAF002E0DB0002E08B5002D08B400BC
:100C9000B7010330B6002A237908B2007808B10002
:100CA000853003178D0000308F00031008300313C8
:100CB000B4003F23103084002A08B8002908B70088
:100CC00096238A3003178D0000308F0003140630FE
:100CD0000313B4003F23103084002608B800250811
:100CE000B70096230430B400FA30C4009020B40B4F
:100CF000742E2908F7002A08FA007A08031D842EAA
:100D0000013077020319932E7A08031D8B2E0230CF
:100D100077020319972E7A08031D922E033077026B
:100D200003199B2EBB2E2508B4005B2CBB2E250877
:100D3000B400B42CBB2E25080139B400B501B408A9
:100D4000031DA52EB5080319B82E2608B5002508E1
:100D5000B400B7010A30B6002A230A307807A7008A
:100D60007908A8000318A80A2508B4004225BB2E5C
:0A0D70002508B4004225CB2D6300D6
:02400E00323F3F
:00000001FF
;PIC16F877A
;CRC=C527  CREATED="01-mar.-23 11:20"
