:1000000006308A00F42E00000A108A100A118207B6
:1000100028340C34013406340A108A100A1182077D
:100020003734383439342F343434353436342A3490
:100030003134323433342D34433430343D342B3482
:100040002010201020000C2841294F10C422A0228B
:10005000CD22D22300010C28D222D3244F274129BC
:10006000202AC521CC2000008C244729C529411015
:1000700047294122CF293A1000000C274F2A202B74
:100080004126492200008A110A121D2F4C3084009B
:1000900083130008031959280630F800F701F70BFD
:1000A0004F28F80B4E287B30F700F70B5528800BB4
:1000B0004C280800530EF039F7000F30070577047D
:1000C0008700000007140230F700F70B6528682846
:1000D0000000071008000708F700070E0F39F800A6
:1000E000080087100F3083160705F0388700831249
:1000F00007150000071400006B207808D3000710D4
:10010000000007148328842800006B207808D200A0
:1001100007100F308316070587008312530EF70070
:10012000F030F70577085204F8007808D200D21BA7
:100130007228501C87105018871400000711000007
:100140000710510ED2000F30D2055208D3005A20AA
:1001500051080F39D200D3005A2008000F308316FF
:1001600007058700071087100711831287100711F2
:1001700007100F30CC0046200130BB003B08033C89
:10018000031CCA280330D3005A200530CC00462077
:10019000BB0ABE280230D3005A20BB013B08033CF7
:1001A000031CDB283B080420BC00D0013C08D10024
:1001B0007120BB0ACE288A110A121E2F2430300764
:1001C000840083130008C00083168801831240084E
:1001D000880008004D0BED28F0284030CE00F128B3
:1001E000CE0101304C02CE074E088038CF00D0013E
:1001F0004F08D100712008004B080C3A0319072959
:10020000063A03190F29023A031915291A29D001B0
:100210000130D10071200230CC0046201F2901306E
:10022000CC000230CD00EA201F29D0011030D100CF
:1002300071201F290130D0004B08D1007120080027
:100240000B08C8008B13831603178C170C140000BF
:10025000000083120313C81B8B1703170C087F3988
:10026000031974290313C80003170D080313C900E9
:1002700003170F080313CA004808CB00FC204908E5
:1002800003178D0003134A0803178F0003130B088D
:10029000CB008B13831603178C170C14000000007F
:1002A00083120313CB1B8B1703170C0D0E0D7F3915
:1002B000031974290313C80003170D080313C90099
:1002C00003170F080313CA004808CB00FC20490895
:1002D00003178D0003134A0803178F008D0A0319B3
:1002E0008F0A03132029031703130800C901A00A6A
:1002F0002008213C0318D6292308FC3E031899291D
:10030000043EDF29EF308316860083128600992988
:10031000DF3083168600831286009929BF3083164A
:1003200086008312860099297F3083168600831207
:100330008600211CA52906080F390F3C031DA4299E
:1003400021102208C900A201D52906080F390F3C47
:100350000319D02906080139031DB029CA01C4298F
:1003600006080239031DB7290130CA00C42906084E
:100370000439031DBE290230CA00C4290608083901
:10038000031DC4290330CA004A0DF700F70DFC30E5
:10039000F705770823070C20F800A2002114D529BF
:1003A000A30A2308043C0319A301A001FF3083160C
:1003B000860083124908F8008A110A12E8290A14F3
:1003C0008A100A118207822988298E299429762980
:1003D0007808C800C8080319E7294808F800080089
:1003E0002030DD00D901DA01DB01DC015408FA001C
:1003F0005308F9005208F8005108F7000310771C61
:100400000F2A5508D90756080318560FDA07570858
:100410000318570FDB0758080318580FDC07DC0CCC
:10042000DB0CDA0CD90CFA0CF90CF80CF70CDD0B20
:10043000FE2908008E30F7004508F8004408F9004E
:10044000FA01F808031D2E2A7908F800F90108308E
:10045000F702F808031D2E2AF701362A0310F81BAD
:10046000352AF90DF80DF7032E2AF8130800450870
:10047000CC004908CC06CC1F422A03110310C51B2F
:100480000314752A4508CC004808CD004408CD0265
:100490000319502ACC1F752A0308013A8300752AD4
:1004A0004908CD004508CD0203195C2ACC1F752AE6
:1004B0000308013A8300752A4A08CD004608CD0298
:1004C0000319682ACC1F752A0308013A8300752A8C
:1004D0004B08CD004708CD020319742ACC1F752A9A
:1004E0000308013A8300752A03100800343003170B
:1004F0008D0000308F00031320210130BC0002303A
:10050000BD003C08CC003D08CD00EA20BF01BE0183
:10051000C001C101C201C301C401C501E7217808BE
:10052000C60046082F3C0318A32A4608393C031C82
:10053000A32A403045078400831346088000C50A7B
:100540004608CB00FC2046082D3C031DC12AC508E7
:100550000319C12AC5034030450784008313800175
:1005600045083C07C800CC003D08CD00EA202030FB
:10057000CB00FC2045083C07C800CC003D08CD005E
:10058000EA204608433C031DDF2AC5080319DF2A79
:10059000C501C001C101C201C301C4013C08CC00B6
:1005A0003D08CD00EA20203003178D0000308F0079
:1005B000031320213C08CC003D08CD00EA2046086A
:1005C0003D3C031DE62AC508031DEA2A4508043CF4
:1005D00003188E2AC7014508470203184B2B4030E9
:1005E00047078400831330300002C8000130450201
:1005F000F80047087802C9000A30CA004908CB0051
:10060000CF01CE01CD010130CC00D0014B0850020A
:100610000318222B4F08D4004E08D3004D08D200F7
:100620004C08D100D801D701D6014A08D500F021E5
:100630007A08CF007908CE007808CD007708CC0082
:10064000D00A062B4C08F7004D08F8004E08F900B8
:100650004F08FA00CA010408C9004A10831B4A1453
:10066000D401D301D2014808D1007A08D800790812
:10067000D7007808D6007708D500F0214908840013
:1006800083134A1883177708BE0778080318780F72
:10069000BF07C70AEB2A3E08F8003F08F9007908AF
:1006A000C5007808C4001A227A08B4007908B3009B
:1006B0007808B2007708B1003B103408C70033084F
:1006C000C6003208C5003108C400CB01CA0134306D
:1006D000C9008730C80037220318702B031D812BF7
:1006E000C701C601C501C4013408CB003308CA00E4
:1006F0003208C9003108C80037220318802B0319BB
:100700003B143B18912B3D3003178D0000308F00B8
:10071000031320210430BC00FA30CC004620BC0B6F
:100720008C2B3B1C762A8A110A12232F80308318C7
:10073000C906CE01CF014508CD004908CD064408C1
:100740000319862CCC00F700480803198F2CCC0223
:1007500003192B2C031CE92B4908D200D2174A0895
:10076000D1004B08D000CF010310D20CD10CD00C1B
:10077000CF0CCC0BB32BCD1FC02B4E14A32C4E1083
:100780004C104E16473084008313B82C4E12CD1BEC
:10079000D32B4C1CDE2BD20CD10CD00CCF0CF70A77
:1007A00003199E2CDE2BD21BE12B0310CF0DD00D95
:1007B000D10DD20DF70303199E2CD32B4E174B2CC2
:1007C0004E134508CD00CD1FE72BD217972CD2131F
:1007D000972C4808CC00F7004408CC024508D2000A
:1007E000D2174608D1004708D000CF010310D20C21
:1007F000D10CD00CCF0CCC0BF52BCD1F022CCE1472
:10080000A32CCE104C10CE164B3084008313B82C82
:10081000CE12CD1B152C4C1C202CD20CD10CD00C84
:10082000CF0CF70A03199E2C202CD21B232C03106B
:10083000CF0DD00DD10DD20DF70303199E2C152C21
:10084000CE174B2CCE134908CD00CD1F292CD21723
:10085000972CD213972C4908D200D2174A08D100FE
:100860004B08D000CD1F382CD2134E15A32C4E119F
:10087000CF014C10473084008313B82CCD1B612C62
:100880004508CD004C1C4B2CD20CD10CD00CCF0CFD
:10089000F70A03199E2CCF1F5C2CD00A031D5C2C79
:1008A000D10A031D5C2CD20A031D5C2CD20CD10C86
:1008B000D00CF70A03199E2C4E1BE02BCE1B222CCA
:1008C000802C8030D206D21F692CA32C4908CD0081
:1008D000762C4508CD00D208031D762CD108031DC7
:1008E000762CD008031D762CF701972CD21B802C78
:1008F0000310CF0DD00DD10DD20DF70B762C9E2C01
:10090000CD1F842CD217972CD213972C4808F700B0
:100910004908D2004A08D1004B08D000972C44085F
:10092000F7004508D2004608D1004708D000520819
:10093000F8005108F9005008FA00D62CF701F80128
:10094000F901FA01D62CCF01D009D109D209CF097A
:10095000CF0A031DB12CD00A031DB12CD10A0319F3
:10096000D20A4E18BF2BCE18012C4E19372C662CEC
:100970000008D007031CC22CD10A031DC22CD20AC6
:1009800003194C1484030008D107031CCA2CD20A93
:1009900003194C1484030008801F803AD2070318FF
:1009A0004C144E1AC62BCE1A082C3E2C08004408B4
:1009B00003199C2DD000480803199C2DD002031C5C
:1009C000E62C7F30D00703189C2DEC2C8130D00210
:1009D000031C9C2D03199C2D5008F700F801F90108
:1009E000FA01CF014508CE00CE174608CD004708D2
:1009F000CC001930D0004B08CC0203180F2D013069
:100A0000CD0203180F2DCE0203180F2DCF020318AD
:100A10000F2DCF0ACE0ACD0A4B08CC07412D4A082C
:100A2000CD0203182A2D0130CE0203182A2DCF0241
:100A300003182A2DCF0ACE0A4A08CD074B08CC0747
:100A4000031C412DCD0A031D412DCE0A031D412D4E
:100A5000CF0A412D49088038CE020318402D0130BD
:100A6000CF020318402DCF0A49088038CE074A0824
:100A7000CD07031C1E2DCE0A031D1E2DCF0A1E2DD1
:100A80007A14D00B442D4F2D0310CC0DCD0DCE0D6F
:100A9000CF0D0310FA0DF90DF80DD10DFB2C511CE3
:100AA000572D0310F80CF90CFA0CD10C5A2DF70342
:100AB00003199C2DD11B832D0310CC0DCD0DCE0D14
:100AC000CF0D4B08CC0203186F2D0130CD02031857
:100AD0006F2DCE0203186F2DCF02031C922D4A08F2
:100AE000CD0203187A2D0130CE0203187A2DCF02E1
:100AF000031C922D49088038CE020318832D013043
:100B0000CF02031C922DFA0A031D922DF90A031D30
:100B1000922DF80A031D922DF70A03199C2DF80C4B
:100B2000F90CFA0C4508D0004908D006D01F9A2DC0
:100B3000F817A02DF813A02DF701F801F901FA011B
:100B4000080083142F08C7002E08C6002D08C50012
:100B50002C08C4003408CB003308CA003208C9008E
:100B60003108C80096237A08C0007908BF007808C9
:100B7000BE007708BD00F7007808F8007908F90092
:100B80007A08FA00F8137A08C0007908BF007808DC
:100B9000BE007708BD007A08C7007908C60078084B
:100BA000C5007708C4006630CB00CA00C9007E309B
:100BB000C800D7247A08B8007908B7007808B600CA
:100BC0007708B5000800B008031DE92D0730B00014
:100BD000EA2DB0030800233003178D0000308F008A
:100BE000031320218316091583120919F22D2B30C6
:100BF00003178D0000308F0003132021E7217808B0
:100C0000BD003A08C5003908C4001A227A08B800A5
:100C10007908B7007808B6007708B500BF01BE01B3
:100C200083103808C7003708C6003608C5003508E5
:100C3000C400CB01CA01C9017F30C80096237A08DD
:100C4000C3007908C2007808C1007708C0002F08E7
:100C5000C7002E08C6002D08C5002C08C400663049
:100C6000CB00CA00C9007E30C800D72483104308D7
:100C7000C7004208C6004108C5004008C4007A0801
:100C8000CB007908CA007808C9007708C800962305
:100C90007A08C3007908C2007808C1007708C0004C
:100CA0003F08C5003E08C4001A227A08C700790828
:100CB000C6007808C5007708C4004308CB00420886
:100CC000CA004108C9004008C8003722031C712E21
:100CD000E325DE203230CC004620BE0A0319BF0ACD
:100CE000102E0800A125BC01BB013C08C5003B0833
:100CF000C4001A227A08C7007908C6007808C5001F
:100D00007708C4003808CB003708CA003608C90085
:100D10003508C8003722031CA92E3008073C031DE4
:100D2000932EB001942EB00ADE206430CC00462011
:100D30003C08BA003B08B900831609158312091D47
:100D4000A52EEB250130F800B32EBB0A0319BC0A0F
:100D5000752E3408AF003308AE003208AD003108FC
:100D6000AC000030F8008A110A12372FA125BC010F
:100D7000BB013C08C5003B08C4001A227A08C70022
:100D80007908C6007808C5007708C4003808CB0089
:100D90003708CA003608C9003508C8003722031CC6
:100DA000E72EE325DE206430CC0046203C08BA0064
:100DB0003B08B900831609158312091DE32EEB25A4
:100DC0000130F800F12EBB0A0319BC0AB92E340811
:100DD000AF003308AE003208AD003108AC0000307F
:100DE000F8008A110A12392F03081F398300AF0156
:100DF000AE01AD01AC01B00183161F149F141F1585
:100E00009F1107309C0083138312A0012110A201BF
:100E1000A3010830A4000A30A5000230A600063065
:100E2000A7000430A8000530A9000130AA0009304D
:100E3000AB008316811383124328AE28DE203230A4
:100E4000CC004620762A2F08C7002E08C6002D08A1
:100E5000C5002C08C4003408CB003308CA0032088F
:100E6000C9003108C8003722031C382F722E392FD1
:060E7000B62E222F6300E4
:02400E00323F3F
:00000001FF
;PIC16F877A
;CRC=9741  CREATED="14-mar.-23 07:40"
