:1000000000308A0074280000243084008313000824
:10001000031917280630F800F701F70B0D28F80B25
:100020000C287B30F700F70B1328800B0A280800F8
:10003000A2012108220203182F2820142008831669
:1000400087008312071C26282F282D288316861048
:10005000831286146430A4000420A20A192883168F
:100060008610831286108A110A12A228A201210882
:100070002202031853288316061183120615033033
:10008000A3007D30A4000420A30B41288316061191
:10009000831206110330A3007D30A4000420A30BBB
:1000A0004C28A20A37288A110A12A528A201210881
:1000B000220203186D28201420088316870083125B
:1000C000071C6428A2016B288316861183128615EB
:1000D0006430A4000420A20A5728831686118312D4
:1000E00086118A110A12A82803081F39830081305B
:1000F00083169900A6309800903083129800FF3044
:10010000A00083161F149F141F159F1107309C0019
:10011000831381309900A6309800903083129800A4
:1001200020142008831687008611831286118316F7
:100130000611831206118316861083128610323040
:10014000A10018280430A10036285030A1005628FC
:040150009F28630081
:02400E00323F3F
:00000001FF
;PIC16F877A
;CRC=7943  CREATED="21-feb.-23 10:36"
