:1000000000308A000428000003081F398300813073
:1000100083169900A6309800903083129800A001B2
:10002000A10183161F149F141F159F1107309C00F8
:1000300083133F308312A2000630A3005B30A4007C
:100040004F30A5006630A6006D30A7007D30A800B7
:100050000730A9007F30AA006F30AB007730AC00CA
:100060007C30AD003930AE005E30AF007930B0008A
:100070007130B100813083169900A630980090301D
:100080008312980083168601831286018316051455
:10009000851405148312051C5D28A008031D5D2826
:1000A00022302107840083130008B20083168601E2
:1000B000831232088600A10A5E28A001831649280F
:0200C0006300DB
:02400E00323F3F
:00000001FF
;PIC16F877A
;CRC=1360  CREATED="16-feb.-23 19:58"
