:1000000003308A00AE2B00000A108A100A11820702
:1000100028340C34013406340A108A100A1182077D
:100020003734383439342F343434353436342A3490
:100030003134323433342D34433430343D342B3482
:100040002010201020000C27F53665396F10311074
:1000500069376739E53961326F1D20000C27F536A5
:1000600065396F10321069376739E53961326F1DB4
:1000700020000C27F536311DA012EC3A2005CE3AAF
:100080006D193A10253675000C27F536A036E13C7F
:100090006F393A10253675000C27F536A036E13C4D
:1000A0006F393A10253675008C294F27A024C72AAE
:1000B0004126C529202841003830840083130008D8
:1000C00003196F280630F800F701F70B6528F80BC5
:1000D00064287B30F700F70B6B28800B6228080040
:1000E0003F0EF039F7000F30080577048800000054
:1000F00008140230F700F70B7B287E280000081058
:1001000008000808F700080E0F39F80008008810EA
:100110000F3083160805F038880083120815000098
:100120000814000081207808BF000810000008149F
:1001300099289A28000081207808BE0008100F3006
:1001400083160805880083123F0EF700F030F7058C
:1001500077083E04F8007808BE00BE1B88283C1CC7
:1001600088103C18881400000811000008103D0E8B
:10017000BE000F30BE053E08BF0070203D080F399D
:10018000BE00BF00702008000F30831608058800ED
:1001900008108810081183128810081108100F30F9
:1001A000B8005C200130A8002808033C031CE028AC
:1001B0000330BF0070200530B8005C20A80AD428A6
:1001C0000230BF007020A8012808033C031CF1285E
:1001D00028080420A900BC012908BD008720A80A1E
:1001E000E4288A110A12BF2B8A110A12C02B390B7C
:1001F000FA28FD284030BA00FE28BA010130380242
:10020000BA073A088038BB00BC013B08BD00872014
:10021000080037080C3A03191429063A03191C2957
:10022000023A031922292729BC010130BD00872089
:100230000230B8005C202C290130B8000230B9002F
:10024000F7202C29BC011030BD0087202C2901305B
:10025000BC003708BD00872008000B08B4008B13D2
:10026000831603178C170C1400000000831203136D
:10027000B41B8B1703170C087F390319812903134B
:10028000B40003170D080313B50003170F08031379
:10029000B6003408B7000921350803178D00031391
:1002A000360803178F0003130B08B7008B13831650
:1002B00003178C170C140000000083120313B71BE4
:1002C0008B1703170C0D0E0D7F39031981290313AA
:1002D000B40003170D080313B50003170F08031329
:1002E000B6003408B7000921350803178D00031341
:1002F000360803178F008D0A03198F0A03132D295F
:10030000031703130800B501A00A2008213C0318B5
:10031000E3292308FC3E0318A629043EEC29EF300C
:100320008316860083128600A629DF308316860096
:1003300083128600A629BF308316860083128600AA
:10034000A6297F308316860083128600211CB229DD
:1003500006080F390F3C031DB12921102208B500F2
:10036000A201E22906080F390F3C0319DD2906080E
:100370000139031DBD29B601D12906080239031D23
:10038000C4290130B600D12906080439031DCB2940
:100390000230B600D12906080839031DD1290330DF
:1003A000B600360DF700F70DFC30F7057708230788
:1003B0000C20F800A2002114E229A30A2308043C1F
:1003C0000319A301A001FF308316860083123508AC
:1003D000F8008A110A122C2A0A148A100A118207BC
:1003E0008F2995299B29A1292030C900C501C60163
:1003F000C701C8014008FA003F08F9003E08F800AC
:100400003D08F7000310771C132A4108C50742086E
:100410000318420FC60743080318430FC7074408D1
:100420000318440FC807C80CC70CC60CC50CFA0C3F
:10043000F90CF80CF70CC90B022A08002808B800C0
:100440002908B900F720AB01AA01AC01AD01AE014A
:10045000AF01B001B10183297808B400B4080319D1
:100460002B2A3408F8007808B20032082F3C031811
:10047000472A3208393C031C472A2C3031078400B4
:10048000831332088000B10A3208B700092132080C
:100490002D3C031D652AB1080319652AB1032C30D0
:1004A000310784008313800131082807B400B800A5
:1004B0002908B900F7202030B700092131082807A2
:1004C000B400B8002908B900F7203208433C031DE6
:1004D000832AB1080319832AB101AC01AD01AE0131
:1004E000AF01B0012808B8002908B900F720203072
:1004F00003178D0000308F0003132D212808B8004A
:100500002908B900F72032083D3C031D8A2AB108AA
:10051000031D8E2A3108043C03182B2AB30131082D
:1005200033020318EF2A2C30330784008313303052
:100530000002B40001303102F80033087802B5003F
:100540000A30B6003508B700BB01BA01B901013065
:10055000B800BC0137083C020318C62A3B08C0009B
:100560003A08BF003908BE003808BD00C401C30105
:10057000C2013608C100F4217A08BB007908BA002C
:100580007808B9007708B800BC0AAA2A3808F7002A
:100590003908F8003A08F9003B08FA00B6010408E7
:1005A000B5003610831B3614C001BF01BE013408EC
:1005B000BD007A08C4007908C3007808C200770833
:1005C000C100F42135088400831336188317770897
:1005D000AA0778080318780FAB07B30A8F2A2A08EE
:1005E000F8002B08F90008000B08A9008B138316EC
:1005F00003178C170C140000000083120313A91BAF
:100600008B1703182B2B03170C087F390313A90032
:1006100003170D080313AA0003170F080313AB00F9
:100620002908B70009212A0803178D0003132B0896
:1006300003178F0003130B08AC008B1383160317EB
:100640008C170C140000000083120313AC1B8B17D3
:10065000A80B2B2B4A2B03170C0D0E0D7F39031300
:10066000A90003170D080313AA0003170F080313AB
:10067000AB002908B70009212A0803178D000313CE
:100680002B0803178F008D0A03198F0A0310031319
:10069000A80BF42A0800B0010408AF003010831B37
:1006A0003014290EF038AB00AB07E23EAC00323E0E
:1006B000AE0029080F39AC07AC07AE07E93EAD0024
:1006C000AD07AD07280E0F39AD07AE07AD0DAE0D66
:1006D000AE09AE0D28080F39AE07AB0D0730AA00E2
:1006E0000A30AE07AD03031C712BAD07AC03031C2E
:1006F000752BAC07AB03031C792BAB07AA03031CB8
:100700007D2B2A308400831307302F052F13840795
:100710002E30040203192F170008F700031D982B31
:100720002F1B982B2F1AAA2BAF19982B20309B2BFD
:10073000AF152F123030F707A9010408A8002910BF
:10074000831B29147708B700092128088400831324
:1007500029188317840A2F1F882B080003081F39C4
:10076000830083161F149F141F159F1107309C00D0
:1007700083138312A0012110A201A301C428F4282D
:10078000233003178D0000308F0003132D2101301B
:10079000A8000230A9001E227908A5007808A4004C
:1007A0002E3003178D0000308F0003132D210130F0
:1007B000A8000230A9001E227908A7007808A60028
:1007C000393003178D0000308F00031007300313FA
:1007D000A800F422103084002508A9002408A800ED
:1007E0004B233E3003178D0000308F00031008307C
:1007F0000313A800F422103084002708A90026085B
:10080000A8004B230830A800FA30B8005C20A80BE1
:10081000042C27082502031C2C2C031D132C240850
:10082000260203182C2C443003178D0000308F0053
:1008300003100C300313A800F422103084002508A4
:10084000A9002408A8004B232830A800FA30B800DB
:100850005C20A80B262C5D2C25082702031C4F2C9E
:10086000031D362C2608240203184F2C4C30031786
:100870008D0000308F0003100C300313A800F42209
:10088000103084002708A9002608A8004B23283030
:10089000A800FA30B8005C20A80B492C5D2C54301D
:1008A00003178D0000308F0003132D212830A8007E
:1008B000FA30B8005C20A80B582CC02B0830A800D8
:0C08C000FA30B8005C20A80B602C63002C
:02400E00323F3F
:00000001FF
;PIC16F877A
;CRC=5BEA  CREATED="23-feb.-23 23:43"
