:1000000007308A00672F00000A108A100A11820741
:1000100028340C34013406340A108A100A1182077D
:100020003734383439342F343434353436342A3490
:100030003134323433342D34433430343D342B3482
:100040000A108A100A118207083401340234043479
:100050002010201020000C2841294F10C422A0227B
:10006000CD22D22300010C28D222D3244F274129AC
:10007000202AC521CC2000008C244729C529411005
:1000800047294122CF293A1000000C274F2A202B64
:100090004126492200008A110A12802F4230840032
:1000A00083130008031961280630F800F701F70BE5
:1000B0005728F80B56287B30F700F70B5D28800B8C
:1000C00054280800490EF039F7000F30070577046F
:1000D0008700000007140230F700F70B6D28702826
:1000E0000000071008000708F700070E0F39F80096
:1000F000080087100F3083160705F0388700831239
:10010000071500000714000073207808C9000710C5
:10011000000007148B288C28000073207808C80082
:1001200007100F308316070587008312490EF7006A
:10013000F030F70577084804F8007808C800C81BB5
:100140007A28461C87104618871400000711000003
:100150000710470EC8000F30C8054808C9006220C4
:1001600047080F39C800C900622008000F30831605
:1001700007058700071087100711831287100711E2
:1001800007100F30C2004E200130B1003108033C8F
:10019000031CD2280330C90062200530C2004E2063
:1001A000B10AC6280230C9006220B1013108033CFF
:1001B000031CE32831080420B200C6013208C7003E
:1001C0007920B10AD6288A110A12812F2808202006
:1001D000B600831688018312360888000800430B96
:1001E000F228F5284030C400F628C401013042024C
:1001F000C40744088038C500C6014508C7007920F7
:10020000080041080C3A03190C29063A031914296D
:10021000023A03191A291F29C6010130C7007920A3
:100220000230C2004E2024290130C2000230C30037
:10023000EF202429C6011030C7007920242901307D
:10024000C6004108C700792008000B08BE008B13C8
:10025000831603178C170C1400000000831203137D
:10026000BE1B8B1703170C087F3903197929031359
:10027000BE0003170D080313BF0003170F08031375
:10028000C0003E08C10001213F0803178D00031381
:10029000400803178F0003130B08C1008B1383164C
:1002A00003178C170C140000000083120313C11BEA
:1002B0008B1703170C0D0E0D7F39031979290313C2
:1002C000BE0003170D080313BF0003170F08031325
:1002D000C0003E08C10001213F0803178D00031331
:1002E000400803178F008D0A03198F0A031325296D
:1002F000031703130800BF01A00A2008213C0318BC
:10030000DB292308FC3E03189E29043EE429EF3034
:1003100083168600831286009E29DF3083168600AE
:10032000831286009E29BF308316860083128600C2
:100330009E297F308316860083128600211CAA29FD
:1003400006080F390F3C031DA92921102208BF0000
:10035000A201DA2906080F390F3C0319D52906082E
:100360000139031DB529C001C92906080239031D39
:10037000BC290130C000C92906080439031DC3295E
:100380000230C000C92906080839031DC9290330F5
:10039000C000400DF700F70DFC30F7057708230784
:1003A0000C20F800A2002114DA29A30A2308043C37
:1003B0000319A301A001FF308316860083123F08B2
:1003C000F8008A110A12ED290A148A100A1182070C
:1003D00087298D29932999297B297808BE00BE0891
:1003E0000319EC293E08F80008002030D300CF01A3
:1003F000D001D101D2014A08FA004908F9004808A1
:10040000F8004708F7000310771C142A4B08CF07A1
:100410004C0803184C0FD0074D0803184D0FD10797
:100420004E0803184E0FD207D20CD10CD00CCF0CB3
:10043000FA0CF90CF80CF70CD30B032A08008E30D9
:10044000F7003D08F8003C08F900FA01F808031D20
:10045000332A7908F800F9010830F702F808031D7B
:10046000332AF7013B2A0310F81B3A2AF90DF80D3D
:10047000F703332AF81308003D08C4004108C406F6
:10048000C41F472A03110310BD1B03147A2A3D0819
:10049000C4004008C5003C08C5020319552AC41F02
:1004A0007A2A0308013A83007A2A4108C5003D08E8
:1004B000C5020319612AC41F7A2A0308013A83007E
:1004C0007A2A4208C5003E08C50203196D2AC41FD6
:1004D0007A2A0308013A83007A2A4308C5003F08B4
:1004E000C5020319792AC41F7A2A0308013A830036
:1004F0007A2A031008003C3003178D0000308F006B
:10050000031325210130B2000230B3003208C200CB
:100510003308C300EF20B501B401B601B701B8013B
:10052000B901BA01BB01EC217808BC003C082F3CA2
:100530000318A82A3C08393C031CA82A36303B077C
:10054000840083133C088000BB0A3C08C1000121E1
:100550003C082D3C031DC62ABB080319C62ABB0351
:1005600036303B078400831380013B083207BE000E
:10057000C2003308C300EF202030C10001213B0836
:100580003207BE00C2003308C300EF203C08433CE2
:10059000031DE42ABB080319E42ABB01B601B70115
:1005A000B801B901BA013208C2003308C300EF2014
:1005B000283003178D0000308F00031325213208E7
:1005C000C2003308C300EF203C083D3C031DEB2A6A
:1005D000BB08031DEF2A3B08043C0318932ABD0106
:1005E0003B083D020318502B36303D07840083132F
:1005F00030300002BE0001303B02F8003D087802B6
:10060000BF000A30C0003F08C100C501C401C301DA
:100610000130C200C601410846020318272B4508D5
:10062000CA004408C9004308C8004208C700CE01F8
:10063000CD01CC014008CB00F5217A08C50079082E
:10064000C4007808C3007708C200C60A0B2B420812
:10065000F7004308F8004408F9004508FA00C00113
:100660000408BF004010831B4014CA01C901C8011F
:100670003E08C7007A08CE007908CD007808CC0083
:100680007708CB00F5213F088400831340188317B7
:100690007708B40778080318780FB507BD0AF02A61
:1006A0003408F8003508F9007908BD007808BC0066
:1006B0001F227A08AC007908AB007808AA007708F6
:1006C000A90031102C08BF002B08BE002A08BD006D
:1006D0002908BC00C301C2013430C1008730C0000A
:1006E0003C220318752B031D862BBF01BE01BD01E3
:1006F000BC012C08C3002B08C2002A08C10029082D
:10070000C0003C220318852B031931143118962B95
:10071000453003178D0000308F000313252104306E
:10072000B200FA30C2004E20B20B912B311C7B2A52
:100730008A110A12862F80308318C106C601C701AC
:100740003D08C5004108C5063C0803198B2CC400B0
:10075000F70040080319942CC4020319302C031C21
:10076000EE2B4108CA00CA174208C9004308C80056
:10077000C7010310CA0CC90CC80CC70CC40BB82B9A
:10078000C51FC52B4614A82C4610441046163F30F2
:1007900084008313BD2C4612C51BD82B441CE32BAD
:1007A000CA0CC90CC80CC70CF70A0319A32CE32BFD
:1007B000CA1BE62B0310C70DC80DC90DCA0DF703E0
:1007C0000319A32CD82B4617502C46133D08C500FF
:1007D000C51FEC2BCA179C2CCA139C2C4008C400C4
:1007E000F7003C08C4023D08CA00CA173E08C90009
:1007F0003F08C800C7010310CA0CC90CC80CC70CBD
:10080000C40BFA2BC51F072CC614A82CC610441005
:10081000C616433084008313BD2CC612C51B1A2C88
:10082000441C252CCA0CC90CC80CC70CF70A0319A8
:10083000A32C252CCA1B282C0310C70DC80DC90DCD
:10084000CA0DF7030319A32C1A2CC617502CC61374
:100850004108C500C51F2E2CCA179C2CCA139C2CFE
:100860004108CA00CA174208C9004308C800C51F8A
:100870003D2CCA134615A82C4611C70144103F3021
:1008800084008313BD2CC51B662C3D08C500441C89
:10089000502CCA0CC90CC80CC70CF70A0319A32C9E
:1008A000C71F612CC80A031D612CC90A031D612CD6
:1008B000CA0A031D612CCA0CC90CC80CF70A03191B
:1008C000A32C461BE52BC61B272C852C8030CA0683
:1008D000CA1F6E2CA82C4108C5007B2C3D08C50002
:1008E000CA08031D7B2CC908031D7B2CC808031DE7
:1008F0007B2CF7019C2CCA1B852C0310C70DC80D3F
:10090000C90DCA0DF70B7B2CA32CC51F892CCA1748
:100910009C2CCA139C2C4008F7004108CA004208CE
:10092000C9004308C8009C2C3C08F7003D08CA00D9
:100930003E08C9003F08C8004A08F8004908F90005
:100940004808FA00DB2CF701F801F901FA01DB2C69
:10095000C701C809C909CA09C709C70A031DB62CB6
:10096000C80A031DB62CC90A0319CA0A4618C42BA3
:10097000C618062C46193C2C6B2C0008C807031C13
:10098000C72CC90A031DC72CCA0A031944148403BF
:100990000008C907031CCF2CCA0A03194414840396
:1009A0000008801F803ACA0703184414461ACB2B4C
:1009B000C61A0D2C432C080083142708BF002608F4
:1009C000BE002508BD002408BC002C08C3002B086D
:1009D000C2002A08C1002908C0009B237A08B6007B
:1009E0007908B5007808B4007708B3003308F70039
:1009F0003408F8003508F9003608FA00F8137A08C8
:100A0000B6007908B5007808B4007708B300360856
:100A1000BA003508B9003408B8003308B7000A3006
:100A2000BE00D730BD002330BC007B30BB00370890
:100A30000319DC2DC3003B080319DC2DC302031C82
:100A4000262D7F30C3070318DC2D2C2D8130C302E7
:100A5000031CDC2D0319DC2D4308F700F801F90114
:100A6000FA01C2013808C100C1173908C0003A08AC
:100A7000BF001930C3003E08BF0203184F2D0130DC
:100A8000C00203184F2DC10203184F2DC2020318D4
:100A90004F2DC20AC10AC00A3E08BF07812D3D087A
:100AA000C00203186A2D0130C10203186A2DC20268
:100AB00003186A2DC20AC10A3D08C0073E08BF07D5
:100AC000031C812DC00A031D812DC10A031D812D28
:100AD000C20A812D3C088038C1020318802D0130E4
:100AE000C2020318802DC20A3C088038C1073D08A5
:100AF000C007031C5E2DC10A031D5E2DC20A5E2DB8
:100B00007A14C30B842D8F2D0310BF0DC00DC10DA2
:100B1000C20D0310FA0DF90DF80DC40D3B2D441C48
:100B2000972D0310F80CF90CFA0CC40C9A2DF7034E
:100B30000319DC2DC41BC32D0310BF0DC00DC10D47
:100B4000C20D3E08BF020318AF2D0130C0020318CA
:100B5000AF2DC1020318AF2DC202031CD22D3D08D8
:100B6000C0020318BA2D0130C1020318BA2DC20207
:100B7000031CD22D3C088038C1020318C32D01305C
:100B8000C202031CD22DFA0A031DD22DF90A031D3D
:100B9000D22DF80A031DD22DF70A0319DC2DF80C0B
:100BA000F90CFA0C3808C3003C08C306C31FDA2D41
:100BB000F817E02DF813E02DF701F801F901FA011B
:100BC0007A08B6007908B5007808B4007708B30051
:100BD0008E30F7003308F7023408F9003508F800C2
:100BE000F917F7080319FF2D0310F908031DFB2D52
:100BF000F8080319FF2DF90CF80CF70BF42DB41FAE
:100C0000062EF809F909F80A0319F90A7908AE005D
:100C10007808AD000800A808031D112E0330A800B5
:100C2000122EA80308002B3003178D0000308F0010
:100C30000313252183160915831209191A2E33303F
:100C400003178D0000308F0003132521EC21780855
:100C5000B3003008AE002F08AD00B501B40101307B
:100C60002D07B6002E08B7000318B70A2708BB00E7
:100C70002608BA002508B9002408B800BF01BE0143
:100C80007A30BD008730BC0038080319B42EC0008C
:100C90003C080319B42EC0070318552E7F30C0023C
:100CA000031CB42E0319B42E592E8130C00703182B
:100CB000B42E4008F700F801F901FA013908C40020
:100CC000C4173A08C3003B08C2001830C000C10175
:100CD000421C822E3F08FA07031C742EF90A031DDA
:100CE000742EF80A0319C1173E08F907031C7B2E5E
:100CF000F80A0319C1173D08BA00BA173A08F807ED
:100D00000318C117C10DF80CF90CFA0CC40CC30C74
:100D1000C20C0310C00B672E0130F7070318B42E66
:100D2000F81B992EC40DFA0DF90DF80DF7030319F0
:100D3000B42EC41FAA2EFA0A031DAA2EF90A031DF7
:100D4000AA2EF80A031DAA2EF80CF90CFA0CF70AC1
:100D50000319B42E3908C1003D08C106C11FB22EC7
:100D6000F817B82EF813B82EF701F801F901FA01B7
:100D70007A08BB007908BA007808B9007708B8008B
:100D80003708BD003608BC001F2283107A08BF0058
:100D90007908BE007808BD007708BC003B08C30096
:100DA0003A08C2003908C1003808C0009B237A08FD
:100DB000B9007908B8007808B7007708B600350898
:100DC000BD003408BC001F227A08BF007908BE00AD
:100DD0007808BD007708BC003908C3003808C20095
:100DE0003708C1003608C0003C22031C002F0B2628
:100DF000E6203230C2004E20B40A0319B50A2F2E65
:100E00000800DC24B201B10132082E02031C2A2F93
:100E1000031D0E2F2D08310203182A2F2808033C2A
:100E2000031D142FA801152FA80AE6206430C20064
:100E30004E203208B0003108AF0083160915831226
:100E4000091D262F13260130F800342FB10A03198B
:100E5000B20A042F2C08A7002B08A6002A08A50018
:100E60002908A4000030F8008A110A129A2FDC2405
:100E7000B201B10132082E02031C5A2F031D442F68
:100E80002D08310203185A2F0B26E6206430C200C9
:100E90004E203208B0003108AF00831609158312C6
:100EA000091D562F13260130F800642FB10A0319CB
:100EB000B20A3A2F2C08A7002B08A6002A08A50082
:100EC0002908A4000030F8008A110A129C2F030898
:100ED0001F398300A701A601A501A401A80183165B
:100EE0001F149F141F159F1107309C00831383123A
:100EF000A0012110A201A3018316811383124B28A4
:100F0000B628E6203230C2004E207B2A2708BF00D8
:100F10002608BE002508BD002408BC002C08C3001C
:100F20002B08C2002A08C1002908C0003C22031C6B
:0C0F30009B2F012F9C2F372F852F630073
:02400E00323F3F
:00000001FF
;PIC16F877A
;CRC=980B  CREATED="17-mar.-23 10:52"
