:1000000005308A00CF2D00000A108A100A118207DD
:1000100028340C34013406340A108A100A1182077D
:100020003134323433342F343434353436342A34A2
:100030003734383439342D34433430343D342B3470
:100040002010201020008C244729C5294110472961
:100050004122CF293A1000010C274F2A202B41269C
:100060004922000037308400831300080319452813
:100070000630F800F701F70B3B28F80B3A287B30E5
:10008000F700F70B4128800B382808003E0EF039A6
:10009000F7000F30070577048700000007140230CF
:1000A000F700F70B51285428000007100800070834
:1000B000F700070E0F39F800080087100F3083167D
:1000C0000705F038870083120715000007140000A9
:1000D00057207808BE000710000007146F2870280A
:1000E000000057207808BD0007100F308316070561
:1000F000870083123E0EF700F030F70577083D04C5
:10010000F8007808BD00BD1B5E283B1C87103B181B
:10011000871400000711000007103C0EBD000F30CF
:10012000BD053D08BE0046203C080F39BD00BE009D
:10013000462008000F308316070587000710871038
:10014000071183128710071107100F30B7003220F4
:100150000130A6002608033C031CB6280330BE006D
:1001600046200530B7003220A60AAA280230BE0079
:100170004620A6012608033C031CC72826080420A5
:10018000A700BB012708BC005D20A60ABA288A1177
:100190000A12E02D8A110A12E12D8E30F700320882
:1001A000F8003108F900FA01F808031DE128790880
:1001B000F800F9010830F702F808031DE128F701FB
:1001C000E9280310F81BE828F90DF80DF703E128DA
:1001D000F8130800310803195A29B9003508031922
:1001E0005A29B9070318FB287F30B902031C5A2982
:1001F00003195A29FF288130B90703185A293908E9
:10020000F700F801F901FA013208BD00BD17330803
:10021000BC003408BB001830B900BA013B1C2829C7
:100220003808FA07031C1A29F90A031D1A29F80AC3
:100230000319BA173708F907031C2129F80A03190B
:10024000BA173608B300B3173308F8070318BA17FC
:10025000BA0DF80CF90CFA0CBD0CBC0CBB0C03105D
:10026000B90B0D290130F70703185A29F81B3F294C
:10027000BD0DFA0DF90DF80DF70303195A29BD1F2D
:100280005029FA0A031D5029F90A031D5029F80ABA
:10029000031D5029F80CF90CFA0CF70A03195A2916
:1002A0003208BA003608BA06BA1F5829F8175E296C
:1002B000F8135E29F701F801F901FA01080080300E
:1002C0008318B606BB01BC013208BA003608BA066C
:1002D000310803194F2AB900F70035080319582AC5
:1002E000B9020319F429031CB2293608BF00BF174D
:1002F0003708BE003808BD00BC010310BF0CBE0C9F
:10030000BD0CBC0CB90B7C29BA1F89293B146C2A83
:100310003B1039103B16343084008313812A3B1282
:10032000BA1B9C29391CA729BF0CBE0CBD0CBC0CE8
:10033000F70A0319672AA729BF1BAA290310BC0DB6
:10034000BD0DBE0DBF0DF7030319672A9C293B178E
:10035000142A3B133208BA00BA1FB029BF17602A0B
:10036000BF13602A3508B900F7003108B902320816
:10037000BF00BF173308BE003408BD00BC01031026
:10038000BF0CBE0CBD0CBC0CB90BBE29BA1FCB29CF
:10039000BB146C2ABB103910BB1638308400831391
:1003A000812ABB12BA1BDE29391CE929BF0CBE0CFD
:1003B000BD0CBC0CF70A0319672AE929BF1BEC29FD
:1003C0000310BC0DBD0DBE0DBF0DF7030319672A49
:1003D000DE29BB17142ABB133608BA00BA1FF2294C
:1003E000BF17602ABF13602A3608BF00BF1737083F
:1003F000BE003808BD00BA1F012ABF133B156C2A86
:100400003B11BC013910343084008313812ABA1B9C
:100410002A2A3208BA00391C142ABF0CBE0CBD0CA3
:10042000BC0CF70A0319672ABC1F252ABD0A031D45
:10043000252ABE0A031D252ABF0A031D252ABF0C33
:10044000BE0CBD0CF70A0319672A3B1BA929BB1B6D
:10045000EB29492A8030BF06BF1F322A6C2A360892
:10046000BA003F2A3208BA00BF08031D3F2ABE085F
:10047000031D3F2ABD08031D3F2AF701602ABF1B49
:10048000492A0310BC0DBD0DBE0DBF0DF70B3F2A51
:10049000672ABA1F4D2ABF17602ABF13602A350882
:1004A000F7003608BF003708BE003808BD00602AD4
:1004B0003108F7003208BF003308BE003408BD0021
:1004C0003F08F8003E08F9003D08FA009F2AF701AE
:1004D000F801F901FA019F2ABC01BD09BE09BF0953
:1004E000BC09BC0A031D7A2ABD0A031D7A2ABE0A6A
:1004F0000319BF0A3B188829BB18CA293B19002ACF
:100500002F2A0008BD07031C8B2ABE0A031D8B2A55
:10051000BF0A0319391484030008BE07031C932A79
:10052000BF0A0319391484030008801F803ABF07EB
:10053000031839143B1A8F29BB1AD129072A08003E
:100540008E30F7002D08F7022E08F9002F08F8006A
:10055000F917F7080319B72A0310F908031DB32A7E
:10056000F8080319B72AF90CF80CF70BAC2AAE1FE0
:10057000BE2AF809F909F80A0319F90A0800033034
:10058000AE02031CCD2A2E30840083130008031909
:10059000CD2ACB2ACB2A800BCA2A08002708B20012
:1005A0002608B100CD207A08B0007908AF0078089D
:1005B000AE007708AD002708B2002608B100CD20B4
:1005C0003008B4002F08B3002E08B2002D08B10087
:1005D0007A08B8007908B7007808B6007708B5003F
:1005E000EA207A08B0007908AF007808AE007708F2
:1005F000AD007A08B4007908B3007808B200770833
:10060000B100B930B800FC30B7000730B6007A301E
:10061000B500EA207A08B0007908AF007808AE008B
:100620007708AD002708B2002608B100CD200430BD
:10063000B4005630B3000930B2008230B1007A08FD
:10064000B8007908B7007808B6007708B500EA2046
:1006500083103008B4002F08B3002E08B2002D0814
:10066000B1007A08B8007908B7007808B6007708B2
:10067000B5005F217A08B0007908AF007808AE00B5
:100680007708AD0083107A08B4007908B3007808C1
:10069000B2007708B100F630B800E830B700593042
:1006A000B6008730B5005F217A08B0007908AF0046
:1006B0007808AE007708AD00A0227908A900780874
:1006C000A8002908B2002808B100CD208314B40185
:1006D0004030B3001C30B2008D30B1007A08B80051
:1006E0007908B7007808B6007708B5005F217A0866
:1006F000B0007908AF007808AE007708AD00A022FE
:100700007908AB007808AA00AC012C08633C031CF4
:10071000AD2B83160911831209152908AD00AD0A06
:10072000AD030319972BFF30AE00BF22902B280892
:10073000AE00BF2283160911831209112B08AD00E8
:10074000AD0AAD030319A82BFF30AE00BF22A12BC9
:100750002A08AE00BF22AC0A852B0800380BB12B4B
:10076000B42B4030B900B52BB90101303702B907BD
:1007700039088038BA00BB013A08BC005D20080087
:1007800036080C3A0319CB2B063A0319D32B023A3D
:100790000319D92BDE2BBB010130BC005D200230D8
:1007A000B7003220E32B0130B7000230B800AE238F
:1007B000E32BBB011030BC005D20E32B0130BB00FC
:1007C0003608BC005D2008000B08B3008B138316AD
:1007D00003178C170C140000000083120313B31BC3
:1007E0008B1703170C087F390319382C0313B30038
:1007F00003170D080313B40003170F080313B50004
:100800003308B600C023340803178D0003133508DE
:1008100003178F0003130B08B6008B1383160317FF
:100820008C170C140000000083120313B61B8B17E7
:1008300003170C0D0E0D7F390319382C0313B30069
:1008400003170D080313B40003170F080313B500B3
:100850003308B600C023340803178D00031335088E
:1008600003178F008D0A03198F0A0313E42B031754
:1008700003130800B401A00A2008213C03189A2C95
:100880002308FC3E03185D2C043EA32CEF30831696
:100890008800831288005D2CDF3083168800831265
:1008A00088005D2CBF3083168800831288005D2C81
:1008B0007F308316880083128800211C692C080869
:1008C0000F390F3C031D682C21102208B400A2012F
:1008D000992C08080F390F3C0319942C080801398A
:1008E000031D742CB501882C08080239031D7B2CCC
:1008F0000130B500882C08080439031D822C023011
:10090000B500882C08080839031D882C0330B50071
:10091000350DF700F70DFC30F705770823070C209D
:10092000F800A2002114992CA30A2308043C0319FF
:10093000A301A001FF308316880083123408F80059
:100940008A110A12EE2C0A108A100A158207462C08
:100950004C2C522C582C2030C800C401C501C601B3
:10096000C7013F08FA003E08F9003D08F8003C08BE
:10097000F7000310771CCA2C4008C407410803186D
:10098000410FC50742080318420FC6074308031862
:10099000430FC707C70CC60CC50CC40CFA0CF90CE6
:1009A000F80CF70CC80BB92C0800233003178D0086
:1009B00000308F000313E4230130A7000230A800A9
:1009C0002708B7002808B800AE23AA01A901AB0187
:1009D000AC01AD01AE01AF01B0013A2C7808B30013
:1009E000B3080319ED2C3308F8007808B10031087A
:1009F0002F3C0318092D3108393C031C092D2B30DD
:100A000030078400831331088000B00A3108B60033
:100A1000C02331082D3C031D272DB0080319272DB5
:100A2000B0032B3030078400831380013008270780
:100A3000B300B7002808B800AE232030B600C023AA
:100A400030082707B300B7002808B800AE233108E4
:100A5000433C031D452DB0080319452DB001AB01E2
:100A6000AC01AD01AE01AF012708B7002808B800FE
:100A7000AE23203003178D0000308F000313E423D2
:100A80002708B7002808B800AE2331083D3C031DF5
:100A90004C2DB008031D502D3008043C0318ED2CDC
:100AA000B201300832020318B12D2B303207840016
:100AB000831330300002B30001303002F8003208F6
:100AC0007802B4000A30B5003408B600BA01B901A2
:100AD000B8010130B700BB0136083B020318882D6E
:100AE0003A08BF003908BE003808BD003708BC000E
:100AF000C301C201C1013508C000AB247A08BA00A5
:100B00007908B9007808B8007708B700BB0A6C2DDF
:100B10003708F7003808F8003908F9003A08FA00F1
:100B2000B5010408B4003510831B3514BF01BE01A4
:100B3000BD013308BC007A08C3007908C2007808F8
:100B4000C1007708C000AB24340884008313351833
:100B500083177708A90778080318780FAA07B20A3D
:100B6000512D2908F8002A08F9007908A50078080D
:100B7000A4002610261CCA2D2C3003178D0000302F
:100B80008F000313E4230430A700FA30B7003220AB
:100B9000A70BC52D2618D52C8A110A12E92D03089A
:100BA0001F39830083161F149F141F159F110730D0
:100BB0009C0083138312A0012110A201A3019A2893
:100BC000CA288316091183120911A701A601CE2292
:100BD000D52C2508A7002408A600CE220430A600A4
:0E0BE000FA30B7003220A60BF02DE82D63008E
:02400E00323F3F
:00000001FF
;PIC16F877A
;CRC=154B  CREATED="23-mar.-23 09:57"
