:1000000000308A00C02800000A108A100A118207F6
:1000100028340C34013406342010201020008A11BA
:100020000A12E1282E3084008313000803192528C2
:100030000630F800F701F70B1B28F80B1A287B3065
:10004000F700F70B2128800B18280800320EF03932
:10005000F7000F300705770487000000071402300F
:10006000F700F70B312834280000071008000708B4
:10007000F700070E0F39F80008000F308316070548
:1000800087000710871007118312871007110710C8
:100090000F30AE0012200130AD002D08033C031CD0
:1000A00059280330B20026200530AE001220AD0AD8
:1000B0004D280230B2002620AD012D08033C031C60
:1000C000A5282D080420AE00AF012E08B00087102F
:1000D0000F3083160705F0388700831207150000DC
:1000E0000714000037207808B2000710000007143A
:1000F00079287A28000037207808B10007100F30DF
:100100008316070587008312320EF700F030F705DB
:1001100077083104F8007808B100B11B68282F1C5B
:1001200087102F1887140000071100000710300EE9
:10013000B1000F30B1053108B200262030080F3968
:10014000B100B2002620AD0A5D288A110A12E22809
:1001500024302C07840083130008AD008316880127
:1001600083122D0888008A110A12E3282C08033C08
:10017000031DBC28AC01BD28AC0A8A110A12E7286D
:1001800003081F398300AC0183161F149F141F1529
:100190009F1107309C0083138312A0012110A2013C
:1001A000A3010830A4000430A5000230A6000130ED
:1001B000A700A801A901AA01AB018316811383122C
:1001C0000F283D28A8283230AE001220B628023071
:1001D000AD00FA30AE001220AD0BE928E62863002E
:02400E00323F3F
:00000001FF
;PIC16F877A
;CRC=C019  CREATED="15-mar.-23 10:04"
