:1000000006308A00592E00000A108A100A11820751
:1000100028340C34013406340A108A100A1182077D
:100020003734383439342F343434353436342A3490
:100030003134323433342D34433430343D342B3482
:100040002010201020008C244729C5294110C420ED
:10005000D4273A1000010C274F2A202B4126492291
:1000600000008C244729C5294110D322C72A4E22DB
:10007000CF293A1000010C274F2A202B4126492274
:1000800000008C24D422D220C3244F27C5293A1043
:1000900000010C274F2A202B4126492200000C2961
:1000A000552A4927411032000C29552A4927411069
:1000B000C3274D28CC22D42000000C29552A4927DB
:1000C0004110C3274D28CC22D42000000C29552AEA
:1000D00049274110C3274D28CC22D42000000C29E9
:1000E000552A49274110C3274D28CC22D42000008F
:1000F0000C2841294F10C422A022CD22D223000176
:100100000C28D222D3244F274129202AC521CC20D4
:1001100000010C29552A49274110253675100A2956
:100120004528BA12EC3AA029C523BA12EC3A0000CD
:1001300041308400831300080319AB280630F8000F
:10014000F701F70BA128F80BA0287B30F700F70B7D
:10015000A728800B9E280800480EF039F7000F30C2
:10016000070577048700000007140230F700F70B3B
:10017000B728BA280000071008000708F700070E84
:100180000F39F800080087100F3083160705F03884
:10019000870083120715000007140000BD207808AF
:1001A000C800071000000714D528D6280000BD207D
:1001B0007808C70007100F308316070587008312E1
:1001C000480EF700F030F70577084704F800780884
:1001D000C700C71BC428451C87104518871400009A
:1001E000071100000710460EC7000F30C70547086B
:1001F000C800AC2046080F39C700C800AC20080072
:100200000F30831607058700071087100711831228
:100210008710071107100F30C10098200130B0007F
:100220003008033C031C1C290330C800AC200530F7
:10023000C1009820B00A10290230C800AC20B001DB
:100240003008033C031C2D2930080420B100C501EF
:100250003108C600C320B00A20298A110A126F2E65
:100260008A110A12702E8316091083120910831640
:100270008910831289100800420B3F29422940301F
:10028000C3004329C30101304102C307430880383A
:10029000C400C5014408C600C320080040080C3A49
:1002A00003195929063A03196129023A03196729E2
:1002B0006C29C5010130C600C3200230C10098205E
:1002C00071290130C1000230C2003C217129C501F1
:1002D0001030C600C32071290130C5004008C60097
:1002E000C32008000B08BD008B13831603178C175F
:1002F0000C140000000083120313BD1B8B1703179F
:100300000C087F390319C6290313BD0003170D0814
:100310000313BE0003170F080313BF003D08C000FE
:100320004E213E0803178D0003133F0803178F006B
:1003300003130B08C0008B13831603178C170C14C0
:100340000000000083120313C01B8B1703170C0D52
:100350000E0D7F390319C6290313BD0003170D08BD
:100360000313BE0003170F080313BF003D08C000AE
:100370004E213E0803178D0003133F0803178F001B
:100380008D0A03198F0A0313722903170313080038
:10039000BE01A00A2008213C0318282A2308FC3E9D
:1003A0000318EB29043E312AEF30831686008312AE
:1003B0008600EB29DF308316860083128600EB2946
:1003C000BF308316860083128600EB297F308316A8
:1003D000860083128600211CF72906080F390F3C7E
:1003E000031DF62921102208BE00A201272A0608B3
:1003F0000F390F3C0319222A06080139031D022A6E
:10040000BF01162A06080239031D092A0130BF0060
:10041000162A06080439031D102A0230BF00162AC6
:1004200006080839031D162A0330BF003F0DF700E8
:10043000F70DFC30F705770823070C20F800A20021
:100440002114272AA30A2308043C0319A301A001AD
:10045000FF308316860083123E08F8008A110A12C4
:100460003A2A0A108A140A118207D429DA29E029C3
:10047000E629C8297808BD00BD080319392A3D08B6
:10048000F80008002030D200CE01CF01D001D10108
:100490004908FA004808F9004708F8004608F7003C
:1004A0000310771C612A4A08CE074B0803184B0F2C
:1004B000CF074C0803184C0FD0074D0803184D0FF9
:1004C000D107D10CD00CCF0CCE0CFA0CF90CF80CD7
:1004D000F70CD20B502A08003108C1003208C200C4
:1004E0003C21B401B301B501B601B701B801B901AE
:1004F000BA0139227808BB003B082F3C03188E2A2A
:100500003B08393C031C8E2A35303A07840083139C
:100510003B088000BA0A3B08C0004E213B082D3C36
:10052000031DAC2ABA080319AC2ABA0335303A07BE
:100530008400831380013A083107BD00C1003208EE
:10054000C2003C212030C0004E213A083107BD00D6
:10055000C1003208C2003C213B08433C031DCA2AAB
:10056000BA080319CA2ABA01B501B601B701B80120
:10057000B9013108C1003208C2003C212030031704
:100580008D0000308F00031372213108C100320842
:10059000C2003C213B083D3C031DD12ABA08031D83
:1005A000D52A3A08043C0318792ABC013A083C02CF
:1005B0000318362B35303C0784008313303000029B
:1005C000BD0001303A02F8003C087802BE000A3053
:1005D000BF003E08C000C401C301C2010130C10018
:1005E000C5014008450203180D2B4408C900430803
:1005F000C8004208C7004108C600CD01CC01CB01AC
:100600003F08CA0042227A08C4007908C30078086B
:10061000C2007708C100C50AF12A4108F700420864
:10062000F8004308F9004408FA00BF010408BE00BE
:100630003F10831B3F14C901C801C7013D08C60014
:100640007A08CD007908CC007808CB007708CA007A
:1006500042223E08840083133F1883177708B307AC
:1006600078080318780FB407BC0AD62A3308F800B4
:100670003408F9000800A110233003178D00003062
:100680008F00031372210130B1000230B2006C22DE
:100690007908A7007808A60030102608693C031DD9
:1006A000542BA7080319682B2608D23C031D5B2B8B
:1006B000A7080319682B26083B3C031D622B270B58
:1006C000622B682B2608A43C031D692B270B692B82
:1006D00030143018792B2B3003178D0000308F0029
:1006E000031372210430B100FA30C1009820B10B1D
:1006F000742B301C3C2B8A110A12752E831609109C
:1007000083120914831689108312891008000B08BC
:10071000B7008B13831603178C170C14000000000E
:1007200083120313B71B8B170318BE2B03170C0878
:100730007F390313B70003170D080313B80003171D
:100740000F080313B9003708C0004E2138080317FB
:100750008D000313390803178F0003130B08BA0029
:100760008B13831603178C170C14000000008312E0
:100770000313BA1B8B17B60BBE2BDD2B03170C0D07
:100780000E0D7F390313B70003170D080313B800CC
:1007900003170F080313B9003708C0004E213808AB
:1007A00003178D000313390803178F008D0A0319EF
:1007B0008F0A03100313B60B872B0800BE01040831
:1007C000BD003E10831B3E14370EF038B900B90748
:1007D000E23EBA00323EBC0037080F39BA07BA070A
:1007E000BC07E93EBB00BB07BB07360E0F39BB0792
:1007F000BC07BB0DBC0DBC09BC0D36080F39BC07CE
:10080000B90D0730B8000A30BC07BB03031C042C29
:10081000BB07BA03031C082CBA07B903031C0C2C32
:10082000B907B803031C102C383084008313073039
:100830003D053D1384073C30040203193D170008B1
:10084000F700031D2B2C3D1B2B2C3D1A3D2CBD19F5
:100850002B2C20302E2CBD153D123030F707B70160
:100860000408B6003710831B37147708C0004E21E8
:1008700036088400831337188317840A3D1F1B2C06
:100880000800A901A801B501B4013308B700320876
:10089000B600B9016430B8001030BA00F701FA01AF
:1008A000B70CB60C031C5A2C3808F7070318FA0AC1
:1008B0003908FA07FA0CF70CF90CF80CBA0B502CA3
:1008C0007908FA0035087A02031C192D031D6C2CD7
:1008D000780834020318192D3508B7003408B6001B
:1008E000B9016430B800F801F901F701FA013908DB
:1008F000031D7D2C38080319972C1030BA00031003
:10090000B60DB70DF70DFA0D39087A02031D8A2CC2
:1009100038087702031C932C3808F702031CFA03EB
:100920003908FA020314F80DF90DBA0B7F2C770879
:10093000B6007A08B700B608031DDC2CB708031D03
:10094000DC2C0230C1000830C2003C218930031782
:100950008D0000308F00031008300313B60087238A
:10096000103084002708B7002608B600DE238E303A
:1009700003178D0000308F00031406300313B600F8
:100980008723103084002B08B7002A08B600DE2326
:10099000933003178D0000308F00031005300313D0
:1009A000B6008723103084002908B7002808B60055
:1009B000DE23A80A0319A90AA118192D0A30C100BB
:1009C0009820831609158312091D152DA1143321B2
:1009D000783003178D0000308F00031372218316C7
:1009E000091583120919EF2C803003178D00003090
:1009F0008F000313722139227808B6000C30C00032
:100A00004E21A701A601B7013708053C031C142D90
:100A10002E30C0004E210230B800FA30C1009820BC
:100A2000B80B0D2DB70A042D192DB40A0319B50AF8
:100A3000452C080083168910831289148316091027
:100A4000831209100800AB010130AA004F300317D0
:100A50008D0000308F00031372210130B100310886
:100A60003002031C4C2D7E23B3010530B20041241B
:100A70003321B3010130B20041241A25B3010530FE
:100A8000B20041243321B3010130B2004124AA0A4B
:100A90000319AB0AB10A2F2DA1185C2D543003178E
:100AA0008D0000308F00031372210430B200FA3041
:100AB000C1009820B20B572D8A110A12AE2EAB013D
:100AC0000130AA00B10031083002031C762D7E23CC
:100AD000B3010330B20041243321B3010130B2002D
:100AE0004124AA0A0319AB0AB10A632DA118862D65
:100AF0005D3003178D0000308F0003137221043026
:100B0000B200FA30C1009820B20B812D8A110A126E
:100B1000AE2E313003178D0000308F000313722189
:100B20000130B1000230B2006C227908AD007808C3
:100B3000AC003010AD08031DA62D2C08783C031C1A
:100B4000A62DAC08031DA72DAD0803193014301CC9
:100B5000B72D3B3003178D0000308F000313722137
:100B60000430B100FA30C1009820B10BB22D30181A
:100B7000892D0800AB010130AA00B1003108300214
:100B8000031CDD2D7E232D08B3002C08B200412468
:100B90003321B3010130B20041241A252D08B300DE
:100BA0002C08B20041243321B3010130B2004124AA
:100BB000AA0A0319AB0AB10ABE2DA118ED2D6630A1
:100BC00003178D0000308F00031372210430B20030
:100BD000FA30C1009820B20BE82D8A110A12AE2E0D
:100BE000413003178D0000308F0003137221013054
:100BF000B1000230B2006C227908AF007808AE0074
:100C00003010AF08031D0D2E2E08323C031C0D2E94
:100C1000AE08031D0E2EAF0803193014301C1E2E13
:100C2000493003178D0000308F0003137221043008
:100C3000B100FA30C1009820B10B192E3018F02DF8
:100C40008A110A12A72EAB010130AA00B1003108A7
:100C50003002031C462E7E232D08B3002C08B20060
:100C600041243321B3010130B20041241A252D085B
:100C7000B3002C08B20041243321B3010130B2008B
:100C80004124AA0A0319AB0AB10A272EA118562E2D
:100C90006F3003178D0000308F0003137221043072
:100CA000B200FA30C1009820B20B512E8A110A12FC
:100CB000AE2E03081F398300A701A601A110AB01C6
:100CC000AA0183161F149F141F159F1107309C0043
:100CD00083138312A0012110A201A301002930294E
:100CE00033218316091583123B2B2608F7002708AA
:100CF000FA007A08031D802E693077020319982EB6
:100D00007A08031D872ED230770203199C2E0130FA
:100D10007A02031D8F2E3B3077020319A02E01307B
:100D20007A02031D972EA43077020319A52EAE2E4A
:100D30000430B000232DAE2E0330B0005F2DAE2E58
:100D400089250330B000BA2DAE2E8925F02D2F084D
:100D5000A5002E08A4002408B000232E742E6300E2
:02400E00323F3F
:00000001FF
;PIC16F877A
;CRC=8E1D  CREATED="06-mar.-23 10:42"
