:1000000005308A00122D0000C837EC30A036753755
:10001000E4378A0600000B08B3008B13831603171E
:100020008C170C140000000083120313B31B8B17F2
:1000300003170C087F39031961280313B300031752
:100040000D080313B40003170F080313B50033089A
:100050000C1E28289900340803178D000313350857
:1000600003178F0003130B08B6008B1383160317B7
:100070008C170C140000000083120313B61B8B179F
:1000800003170C0D0E0D7F39031961280313B300FC
:1000900003170D080313B40003170F080313B5006B
:1000A00033080C1E51289900340803178D000313E0
:1000B000350803178F008D0A03198F0A03130B28C5
:1000C000031703138A110A12332D8E30F7003808F4
:1000D000F8003708F900FA01F808031D79287908B3
:1000E000F800F9010830F702F808031D7928F70134
:1000F00081280310F81B8028F90DF80DF7037928E3
:10010000F813080080308318CC06D101D2014808CA
:10011000D0004C08D006470803197229CF00F70019
:100120004B0803197B29CF0203191729031CD52873
:100130004C08D500D5174D08D4004E08D300D20185
:100140000310D50CD40CD30CD20CCF0B9F28D01F8E
:10015000AC2851148F2951104F1051164A30840089
:100160008313A4295112D01BBF284F1CCA28D50CB9
:10017000D40CD30CD20CF70A03198A29CA28D51B30
:10018000CD280310D20DD30DD40DD50DF7030319CF
:100190008A29BF285117372951134808D000D01F8A
:1001A000D328D5178329D51383294B08CF00F7000F
:1001B0004708CF024808D500D5174908D4004A0897
:1001C000D300D2010310D50CD40CD30CD20CCF0B1E
:1001D000E128D01FEE28D1148F29D1104F10D1164D
:1001E0004E3084008313A429D112D01B01294F1C47
:1001F0000C29D50CD40CD30CD20CF70A03198A297C
:100200000C29D51B0F290310D20DD30DD40DD50DFC
:10021000F70303198A290129D1173729D1134C086B
:10022000D000D01F1529D5178329D51383294C0851
:10023000D500D5174D08D4004E08D300D01F24296F
:10024000D51351158F295111D2014F104A30840016
:100250008313A429D01B4D294808D0004F1C3729EF
:10026000D50CD40CD30CD20CF70A03198A29D21F4F
:100270004829D30A031D4829D40A031D4829D50A51
:10028000031D4829D50CD40CD30CF70A03198A296D
:10029000511BCC28D11B0E296C298030D506D51FC7
:1002A00055298F294C08D00062294808D000D5086C
:1002B000031D6229D408031D6229D308031D622986
:1002C000F7018329D51B6C290310D20DD30DD40D52
:1002D000D50DF70B62298A29D01F7029D5178329DC
:1002E000D51383294B08F7004C08D5004D08D400DE
:1002F0004E08D30083294708F7004808D50049086D
:10030000D4004A08D3005508F8005408F9005308EF
:10031000FA00C229F701F801F901FA01C229D20154
:10032000D309D409D509D209D20A031D9D29D30ABC
:10033000031D9D29D40A0319D50A5118AB28D118D9
:10034000ED285119232952290008D307031CAE298F
:10035000D40A031DAE29D50A03194F1484030008DB
:10036000D407031CB629D50A03194F1484030008C7
:10037000801F803AD50703184F14511AB228D11A9A
:10038000F4282A29080083103E08CA003D08C90045
:100390003C08C8003B08C7004208CE004108CD0019
:1003A0004008CC003F08CB0082207A08C6007908BC
:1003B000C5007808C4007708C3004308F700440864
:1003C000F8004508F9004608FA008A110A12602D63
:1003D00083143E08CA003D08C9003C08C8003B0819
:1003E000C7004208CE004108CD004008CC003F08BD
:1003F000CB0082207A08C6007908C5007808C400BE
:100400007708C3004308F7004408F8004508F900DE
:100410004608FA008A110A12912D3E08CA003D08CA
:10042000C9003C08C8003B08C7004208CE0041088C
:10043000CD004008CC003F08CB0047080319E22A52
:10044000D3004B080319E22AD302031C2C2A7F3065
:10045000D3070318E22A322A8130D302031CE22A8E
:100460000319E22A5308F700F801F901FA01D20151
:100470004808D100D1174908D0004A08CF001930E8
:10048000D3004E08CF020318552A0130D0020318BA
:10049000552AD1020318552AD2020318552AD20A26
:1004A000D10AD00A4E08CF07872A4D08D002031878
:1004B000702A0130D1020318702AD2020318702A60
:1004C000D20AD10A4D08D0074E08CF07031C872A4D
:1004D000D00A031D872AD10A031D872AD20A872A38
:1004E0004C088038D1020318862A0130D202031842
:1004F000862AD20A4C088038D1074D08D007031C41
:10050000642AD10A031D642AD20A642A7A14D30BFE
:100510008A2A952A0310CF0DD00DD10DD20D0310CC
:10052000FA0DF90DF80DD40D412A541C9D2A031023
:10053000F80CF90CFA0CD40CA02AF7030319E22AE0
:10054000D41BC92A0310CF0DD00DD10DD20D4E08EA
:10055000CF020318B52A0130D0020318B52AD10200
:100560000318B52AD202031CD82A4D08D00203185A
:10057000C02A0130D1020318C02AD202031CD82A93
:100580004C088038D1020318C92A0130D202031C5A
:10059000D82AFA0A031DD82AF90A031DD82AF80A0C
:1005A000031DD82AF70A0319E22AF80CF90CFA0CF1
:1005B0004808D3004C08D306D31FE02AF817E62AD0
:1005C000F813E62AF701F801F901FA017A08C600E2
:1005D0007908C5007808C4007708C3004308F7000D
:1005E0004408F8004508F9004608FA008A110A1282
:1005F000C22D47080319692BCF004B080319692B3B
:10060000CF0703180A2B7F30CF02031C692B031975
:10061000692B0E2B8130CF070318692B4F08F70089
:10062000F801F901FA014808D300D3174908D200AC
:100630004A08D1001830CF00D001511C372B4E088A
:10064000FA07031C292BF90A031D292BF80A0319A1
:10065000D0174D08F907031C302BF80A0319D017DF
:100660004C08C900C9174908F8070318D017D00D5E
:10067000F80CF90CFA0CD30CD20CD10C0310CF0BE4
:100680001C2B0130F7070318692BF81B4E2BD30DD9
:10069000FA0DF90DF80DF7030319692BD31F5F2B22
:1006A000FA0A031D5F2BF90A031D5F2BF80A031DCD
:1006B0005F2BF80CF90CFA0CF70A0319692B4808A0
:1006C000D0004C08D006D01F672BF8176D2BF813FD
:1006D0006D2BF701F801F901FA0108003E08CA0084
:1006E0003D08C9003C08C8003B08C7004208CE00CE
:1006F0004108CD004008CC003F08CB00F9227A0821
:10070000C6007908C5007808C4007708C30043080C
:10071000F7004408F8004508F9004608FA008A1175
:100720000A12F32D3608F801350203189A2B350802
:10073000F700A62BF7010830B700B50DF70D360806
:1007400077020318F700F80DB70B9D2B0800780807
:100750003308B5006430B60092237708B3007808F8
:100760003030031DBA2BB41CC22BB419C22B341A5F
:100770002030BD2BB41134123414F80778080C1E45
:10078000BF2B99003308B5000A30B60092237708D2
:10079000B30078083030031DD32BB419D82B341C88
:1007A000D82B341A2030F80778080C1ED52B990066
:1007B0003030B30733080C1EDB2B99000800831878
:1007C000E42B483084008313F701F801F901FA01A2
:1007D000C801C901CA01CB014708460445044404C5
:1007E0000319222C2030CC000310C00DC10DC20D06
:1007F000C30DC80DC90DCA0DCB0D47084B02031D13
:100800000B2C46084A02031D0B2C45084902031D08
:100810000B2C44084802031C1C2C4408C802450841
:10082000031C450FC9024608031C460FCA024708AD
:10083000031C470FCB020314F70DF80DF90DFA0D49
:10084000CC0BF42B48088000840A49088000840AF5
:100850004A088000840A4B08800008000408B80099
:100860003708BA0003194D2C3608CA003508C900EC
:100870003408C8003308C700CE01CD012030CC00B9
:100880008230CB00F9227A08B6007908B5007808E2
:10089000B4007708B300BA0B342C3608C30035080F
:1008A000C2003408C1003308C0004008B63CC00094
:1008B000FA014108C400C1170310C10CC20CC30CDB
:1008C000FA0CF90CF80CF70CC00B5C2CC41F732C41
:1008D000F709F809F909FA09F70A0319F80A0319D7
:1008E000F90A0319FA0A7A08B6007908B5007808F7
:1008F000B4007708B300B61F8A2CB803B816B30942
:10090000B409B509B609B30A0319B40A0319B50A3B
:100910000319B60A3B30BF009A30BE00CA30BD0092
:10092000BC010A30BA0037080319B80A83143330FF
:10093000840083133608C3003508C2003408C100A0
:100940003308C0003F08C7003E08C6003D08C50088
:100950003C08C400DF237808F708031DC22C370ABF
:100960003A020319C22C38080319C42C0F393A0271
:100970000319BC2C0318F82CB81BF82C381BC42CFA
:100980002030F32C2030B805B81ED32CB81237080D
:10099000031DB8037708B8002D300C1ECD2C99002C
:1009A0003808F700B80137083A02031DE22C77082F
:1009B000B8002E300C1EDA2C99003808F7002030D1
:1009C000B80500303030B81EF32CB8123708031DBC
:1009D000B8037708B8002D300C1EEC2C99003808AD
:1009E000F700B8013030F70777080C1EF52C990096
:1009F00083103F08C3003E08C2003D08C1003C0808
:100A0000C000C701C601C5010A30C400DF237A084F
:100A1000BF007908BE007808BD007708BC00BA0B9B
:100A2000962C080003081F39830081308316990033
:100A3000A630980090308312980083161F149F14DC
:100A40001F159F1107309C00831381309900A63039
:100A50009800903083129800043003178D00003006
:100A60008F0003130B280430A1000330A200B8014B
:100A70002108B70065207A08B6007908B500780823
:100A8000B4007708B300B8012208B70065207A08DF
:100A9000BA007908B9007808B8007708B7003608B6
:100AA000BE003508BD003408BC003308BB007A081E
:100AB000C2007908C1007808C0007708BF00C329C8
:100AC0007A08A6007908A5007808A4007708A30092
:100AD000B8012108B70065207A08B6007908B5008A
:100AE0007808B4007708B300B8012208B700652081
:100AF0007A08BA007908B9007808B8007708B70012
:100B00003608BE003508BD003408BC003308BB0001
:100B10007A08C2007908C1007808C0007708BF00D1
:100B2000E8297A08AA007908A9007808A8007708B7
:100B3000A700B8012108B70065207A08B600790837
:100B4000B5007808B4007708B300B8012208B700F0
:100B500065207A08BA007908B9007808B8007708E3
:100B6000B7003608BE003508BD003408BC003308A5
:100B7000BB007A08C2007908C1007808C000770875
:100B8000BF000D2A7A08AE007908AD007808AC00E5
:100B90007708AB00B8012108B70065207A08B600D5
:100BA0007908B5007808B4007708B300B8012208C6
:100BB000B70065207A08BA007908B9007808B8004B
:100BC0007708B7003608BE003508BD003408BC0001
:100BD0003308BB007A08C2007908C1007808C00059
:100BE0007708BF006E2B7A08B2007908B100780848
:100BF000B0007708AF002108B3001B30B400A72372
:100C000020300C1E012E99002B300C1E052E990051
:100C100020300C1E092E99002208B3001B30B400AE
:100C2000A7233A300C1E122E990020300C1E162ECF
:100C30009900893084002608B6002508B5002408EC
:100C4000B4002308B3000230B7002E240A300C1E73
:100C5000272E99000D300C1E2B2E99002108B30071
:100C60001B30B400A72320300C1E342E99002D30E9
:100C70000C1E382E990020300C1E3C2E99002208A4
:100C8000B3001B30B400A7233A300C1E452E990048
:100C900020300C1E492E9900893084002A08B600A5
:100CA0002908B5002808B4002708B3000230B700AF
:100CB0002E240A300C1E5A2E99000D300C1E5E2E6A
:100CC00099002108B3001B30B400A72320300C1E6C
:100CD000672E99002F300C1E6B2E990020300C1EB1
:100CE0006F2E99002208B3001B30B400A7233A30BE
:100CF0000C1E782E990020300C1E7C2E9900893015
:100D000084002E08B6002D08B5002C08B4002B086E
:100D1000B3000230B7002E240A300C1E8D2E99002D
:100D20000D300C1E912E99002108B3001B30B40029
:100D3000A72320300C1E9A2E99002A300C1E9E2EBE
:100D4000990020300C1EA22E99002208B3001B30FF
:100D5000B400A7233A300C1EAB2E990020300C1E95
:100D6000AF2E9900893084003208B6003108B500F2
:100D70003008B4002F08B3000230B7002E240A3028
:100D80000C1EC02E99000D300C1EC42E9900C72ECB
:020D90006300FE
:02400E00323F3F
:00000001FF
;PIC16F877A
;CRC=B489  CREATED="15-feb.-23 10:23"
