:1000000004308A00962C00000A108A100A11820718
:1000100028340C34013406340A108A100A1182077D
:100020003134323433342F343434353436342A34A2
:100030003734383439342D34433430343D342B3470
:100040002010201020008C20EE31E8373A003630A6
:1000500084008313000803193A280630F800F701DA
:10006000F70B3028F80B2F287B30F700F70B3628DA
:10007000800B2D2808003D0EF039F7000F300705E2
:1000800077048700000007140230F700F70B4628BA
:1000900049280000071008000708F700070E0F396D
:1000A000F800080087100F3083160705F038870026
:1000B000831207150000071400004C207808BD00CB
:1000C0000710000007146428652800004C207808F9
:1000D000BC0007100F3083160705870083123D0E02
:1000E000F700F030F70577083C04F8007808BC000A
:1000F000BC1B53283A1C87103A18871400000711BC
:10010000000007103B0EBC000F30BC053C08BD00D2
:100110003B203B080F39BC00BD003B2008000F30DE
:1001200083160705870007108710071183128710B1
:10013000071107100F30B60027200130A60026084F
:10014000033C031CAB280330BD003B200530B60048
:100150002720A60A9F280230BD003B20A6012608C2
:10016000033C031CBC2826080420A700BA0127086A
:10017000BB005220A60AAF288A110A12A72C8A11A6
:100180000A12A82C370BC528C8284030B800C92847
:10019000B80101303602B80738088038B900BA0112
:1001A0003908BB005220080035080C3A0319DF2833
:1001B000063A0319E728023A0319ED28F228BA0192
:1001C0000130BB0052200230B6002720F728013052
:1001D000B6000230B700C220F728BA011030BB00C9
:1001E0005220F7280130BA003508BB005220080021
:1001F0000B08B2008B13831603178C170C14000026
:10020000000083120313B21B8B1703170C087F39EE
:1002100003194C290313B20003170D080313B3008D
:1002200003170F080313B4003208B500D4203308B5
:1002300003178D000313340803178F0003130B08F3
:10024000B5008B13831603178C170C1400000000E5
:1002500083120313B51B8B1703170C0D0E0D7F397B
:1002600003194C290313B20003170D080313B3003D
:1002700003170F080313B4003208B500D420330865
:1002800003178D000313340803178F008D0A031919
:100290008F0A0313F828031703130800B301A00AF9
:1002A0002008213C0318AE292308FC3E03187129BD
:1002B000043EB729EF308316880083128800712925
:1002C000DF3083168800831288007129BF308316BF
:1002D00088008312880071297F308316880083127A
:1002E0008800211C7D2908080F390F3C031D7C293B
:1002F00021102208B300A201AD2908080F390F3CD4
:100300000319A82908080139031D8829B4019C296B
:1003100008080239031D8F290130B4009C29080800
:100320000439031D96290230B4009C2908080839B5
:10033000031D9C290330B400340DF700F70DFC3089
:10034000F705770823070C20F800A2002114AD2937
:10035000A30A2308043C0319A301A001FF3083165C
:10036000880083123308F8008A110A12F7290A1448
:100370008A100A1182075A29602966296C292030BF
:10038000C700C301C401C501C6013E08FA003D080B
:10039000F9003C08F8003B08F7000310771CDE2941
:1003A0003F08C30740080318400FC407410803185B
:1003B000410FC50742080318420FC607C60CC50CFB
:1003C000C40CC30CFA0CF90CF80CF70CC70BCD29B4
:1003D00008002608B6002708B700C220A901A80116
:1003E000AA01AB01AC01AD01AE01AF014E29780805
:1003F000B200B2080319F6293208F8007808B000F4
:1004000030082F3C0318122A3008393C031C122AEA
:100410002A302F078400831330088000AF0A300889
:10042000B500D42030082D3C031D302AAF08031935
:10043000302AAF032A302F078400831380012F084E
:100440002607B200B6002708B700C2202030B5004A
:10045000D4202F082607B200B6002708B700C22014
:100460003008433C031D4E2AAF0803194E2AAF0142
:10047000AA01AB01AC01AD01AE012608B600270808
:10048000B700C220203003178D0000308F00031307
:10049000F8202608B6002708B700C22030083D3CE7
:1004A000031D552AAF08031D592A2F08043C0318C1
:1004B000F629B1012F0831020318BA2A2A30310770
:1004C0008400831330300002B20001302F02F800A4
:1004D00031087802B3000A30B4003308B500B9011E
:1004E000B801B7010130B600BA0135083A02031865
:1004F000912A3908BE003808BD003708BC0036080C
:10050000BB00C201C101C0013408BF00BF217A088D
:10051000B9007908B8007808B7007708B600BA0AB9
:10052000752A3608F7003708F8003808F900390846
:10053000FA00B4010408B3003410831B3414BE0164
:10054000BD01BC013208BB007A08C2007908C100B5
:100550007808C0007708BF00BF21330884008313E8
:10056000341883177708A80778080318780FA907A5
:10057000B10A5A2A2808F8002908F9008A110A1233
:10058000B82C0330AC02031CCF2A2C308400831318
:1005900000080319CF2ACD2ACD2A800BCC2A0800C7
:1005A0002708AC002608AB008E30F7002C08F800B6
:1005B0002B08F900FA01F808031DE82A7908F80069
:1005C000F9010830F702F808031DE82AF701F02ABC
:1005D0000310F81BEF2AF90DF80DF703E82AF813BA
:1005E0008314AE012030AD004B30AC008D30AB0039
:1005F0007A08B2007908B1007808B0007708AF0037
:1006000080308318B006B501B6012C08B40030085C
:10061000B4062B080319F02BB300F7002F080319B9
:10062000F92BB3020319952B031C532B3008B90087
:10063000B9173108B8003208B700B6010310B90C79
:10064000B80CB70CB60CB30B1D2BB41F2A2B3514EA
:100650000D2C3510331035162E3084008313222CC8
:100660003512B41B3D2B331C482BB90CB80CB70CFE
:10067000B60CF70A0319082C482BB91B4B2B031097
:10068000B60DB70DB80DB90DF7030319082C3D2BA6
:100690003517B52B35132C08B400B41F512BB917DF
:1006A000012CB913012C2F08B300F7002B08B3025B
:1006B0002C08B900B9172D08B8002E08B700B601EC
:1006C0000310B90CB80CB70CB60CB30B5F2BB41FEE
:1006D0006C2BB5140D2CB5103310B51632308400C8
:1006E0008313222CB512B41B7F2B331C8A2BB90C1D
:1006F000B80CB70CB60CF70A0319082C8A2BB91BD7
:100700008D2B0310B60DB70DB80DB90DF7030319F6
:10071000082C7F2BB517B52BB5133008B400B41FC8
:10072000932BB917012CB913012C3008B900B91754
:100730003108B8003208B700B41FA22BB913351521
:100740000D2C3511B60133102E3084008313222C6A
:10075000B41BCB2B2C08B400331CB52BB90CB80C34
:10076000B70CB60CF70A0319082CB61FC62BB70A2C
:10077000031DC62BB80A031DC62BB90A031DC62BC1
:10078000B90CB80CB70CF70A0319082C351B4A2B07
:10079000B51B8C2BEA2B8030B906B91FD32B0D2C3F
:1007A0003008B400E02B2C08B400B908031DE02B7E
:1007B000B808031DE02BB708031DE02BF701012C3F
:1007C000B91BEA2B0310B60DB70DB80DB90DF70B19
:1007D000E02B082CB41FEE2BB917012CB913012CF8
:1007E0002F08F7003008B9003108B8003208B70008
:1007F000012C2B08F7002C08B9002D08B8002E0892
:10080000B7003908F8003808F9003708FA00402C1A
:10081000F701F801F901FA01402CB601B709B8094E
:10082000B909B609B60A031D1B2CB70A031D1B2CF8
:10083000B80A0319B90A3518292BB5186B2B3519C5
:10084000A12BD02B0008B707031C2C2CB80A031DC2
:100850002C2CB90A0319331484030008B807031CAD
:10086000342CB90A0319331484030008801F803A1A
:10087000B90703183314351A302BB51A722BA82B6D
:100880007A08AE007908AD007808AC007708AB00B4
:100890008E30F7002B08F7022C08F9002D08F8001D
:1008A000F917F70803195F2C0310F908031D5B2CD7
:1008B000F80803195F2CF90CF80CF70B542CAC1F3B
:1008C000662CF809F909F80A0319F90A7908A90048
:1008D0007808A800AA012A08093C031C932C831657
:1008E0000911831209152708AB00AB0AAB030319E2
:1008F0007D2CFF30AC00C122762C2608AC00C12232
:1009000083160911831209112908AB00AB0AAB0346
:1009100003198E2CFF30AC00C122872C2808AC00B4
:10092000C122AA0A6B2C8A110A12C12C03081F3992
:10093000830083161F149F141F159F1107309C00FE
:1009400083138312A0012110A201A3018F28BF28C5
:100950008316091183120911233003178D0000300B
:100960008F000313F8200130A6000230A700E92908
:100970007908A5007808A4002508A7002408A60087
:10098000D02A0430A600FA30B6002720A60BC32CCC
:04099000AC2C630028
:02400E00323F3F
:00000001FF
;PIC16F877A
;CRC=AEB4  CREATED="22-mar.-23 09:45"
