:1000000001308A00832900000A108A100A11820731
:1000100028340C34013406340C2B61366F393A1015
:1000200000002730840083130008031924280630B9
:10003000F800F701F70B1A28F80B19287B30F700A6
:10004000F70B2028800B172808002E0EF039F70038
:100050000F30080577048800000008140230F7000C
:10006000F70B302833280000081008000808F700B4
:10007000080E0F39F800080088100F3083160805A5
:10008000F03888008312081500000814000036209C
:100090007808AE000810000008144E284F28000011
:1000A00036207808AD0008100F3083160805880048
:1000B00083122E0EF700F030F70577082D04F800B4
:1000C0007808AD00AD1B3D282B1C88102B18881418
:1000D00000000811000008102C0EAD000F30AD0517
:1000E0002D08AE0025202C080F39AD00AE002520CC
:1000F00008000F30831608058800081088100811C2
:1001000083128810081108100F30A7001120013049
:10011000A3002308033C031C95280330AE002520D0
:100120000530A7001120A30A89280230AE0025203F
:10013000A3012308033C031CA62823080420A400D1
:10014000AB012408AC003C20A30A99288A110A12AA
:100150009129280BAC28AF284030A900B028A9016C
:1001600001302702A90729088038AA00AB012A0814
:10017000AC003C20080026080C3A0319C628063AB1
:100180000319CE28023A0319D428D928AB0101302B
:10019000AC003C200230A7001120DE280130A7006F
:1001A0000230A800A920DE28AB011030AC003C20B2
:1001B000DE280130AB002608AC003C2008000B080C
:1001C000A3008B13831603178C170C140000000078
:1001D00083120313A31B8B1703170C087F39031912
:1001E00033290313A30003170D080313A4000317F7
:1001F0000F080313A5002308A600BB20240803173B
:100200008D000313250803178F0003130B08A600A6
:100210008B13831603178C170C1400000000831235
:100220000313A61B8B1703170C0D0E0D7F39031933
:1002300033290313A30003170D080313A4000317A6
:100240000F080313A5002308A600BB2024080317EA
:100250008D000313250803178F008D0A03198F0AD9
:100260000313DF28031703138A110A12992926089A
:10027000F801250203183F292508F7004B29F7014B
:100280000830A700A50DF70D260877020318F70020
:10029000F80DA70B4229080078082308A500643050
:1002A000A60037217708A30078083030031D5F29A6
:1002B000A41C6629A4196629241A20306229A411D5
:1002C00024122414F8077808A600BB202308A500F0
:1002D0000A30A60037217708A30078083030031DC4
:1002E0007729A4197B29241C7B29241A2030F8079C
:1002F0007808A600BB203030A3072308A600BB2047
:100300008A110A12C92903081F398300A201831622
:100310001F149F141F159F1107309C008313831215
:100320007928A0010C3003178D0000308F000313D3
:10033000DF28831606148312061CA429A008031DB7
:10034000A4290130A000A20A8316061483120618FD
:10035000AC29200BAC29A001831686148312861CBD
:10036000B729A108031DB7290130A100A2038316F4
:10037000861483128618BF29210BBF29A1010830DA
:10038000A7000130A800A9202208A3001B30A40068
:060390004C2999296300CD
:02400E00323F3F
:00000001FF
;PIC16F877A
;CRC=4C39  CREATED="21-feb.-23 18:10"
