:1000000001308A00D9290000FF00030E8301A100FE
:100010000A08A0008A010408A2007708A300780853
:10002000A4007908A5007A08A60003170D08031399
:10003000A70003170F080313A80003170C080313E6
:10004000A90003170E080313AA00831383120B1EC3
:100050002B288B184C28220884002308F70024083A
:10006000F8002508F9002608FA00270803178D0074
:100070000313280803178F000313290803178C00A4
:1000800003132A0803178E00031320088A00210E89
:100090008300FF0E7F0E09008A110A125A280A10E7
:1000A0008A100A11820728340C34013406342010D7
:1000B00020102000AF018B108A110A122B28CE3A93
:1000C0006D1DA519750035308400831300080319D0
:1000D00076280630F800F701F70B6C28F80B6B2830
:1000E0007B30F700F70B7228800B692808003C0E64
:1000F000F039F7000F300705770487000000071478
:100100000230F700F70B822885280000071008004E
:100110000708F700070E0F39F800080087100F30A6
:1001200083160705F03887008312071500000714AF
:10013000000088207808BC00071000000714A028E1
:10014000A128000088207808BB0007100F30831614
:100150000705870083123C0EF700F030F70577089B
:100160003B04F8007808BB00BB1B8F28391C8710A4
:100170003918871400000711000007103A0EBB0061
:100180000F30BB053B08BC0077203A080F39BB0095
:10019000BC00772008000F30831607058700071082
:1001A0008710071183128710071107100F30B50051
:1001B00063200130B0003008033C031CE728033003
:1001C000BC0077200530B5006320B00ADB28023080
:1001D000BC007720B0013008033C031CF82830082D
:1001E0004F20B100B9013108BA008E20B00AEB28C7
:1001F0008A110A12EB298A110A12EC29360B0129FD
:1002000004294030B7000529B70101303502B7078E
:1002100037088038B800B9013808BA008E200800C5
:1002200034080C3A03191B29063A03192329023A08
:10023000031929292E29B9010130BA008E20023074
:10024000B500632033290130B5000230B600FE202E
:100250003329B9011030BA008E2033290130B9009A
:100260003408BA008E2008000B08B1008B138316E7
:1002700003178C170C140000000083120313B11B2A
:100280008B1703186B2903170C087F390313B10070
:1002900003170D080313B20003170F080313B3006D
:1002A0003108B4001021320803178D0003133308FE
:1002B00003178F0003130B08B4008B138316031767
:1002C0008C170C140000000083120313B41B8B174F
:1002D000B00B6B298A2903170C0D0E0D7F39031300
:1002E000B10003170D080313B20003170F0803131F
:1002F000B3003108B4001021320803178D00031336
:10030000330803178F008D0A03198F0A0310031394
:10031000B00B34298A110A12FD293308F801320280
:10032000031895293208F700A129F7010830B40015
:10033000B20DF70D330877020318F700F80DB40B70
:100340009829080078083008B2006430B3008D2185
:100350007708B00078083030031DB529B11CBC29DE
:10036000B119BC29311A2030B829B1113112311418
:10037000F8077808B40010213008B2000A30B30042
:100380008D217708B00078083030031DCD29B119D0
:10039000D129311CD129311A2030F8077808B4004E
:1003A00010213030B0073008B40010218A110A1231
:1003B000022A03081F398300AF0183161F149F14FC
:1003C0001F159F1107309C0083138312AB012C1063
:1003D000AD01AE01CB28FB28C0308B040B160130D9
:1003E000B500B600FE205F3003178D0000308F008F
:1003F000031004300313B00034292F08B000133069
:10040000B100A229AF0A0430B000FA30B500632071
:08041000B00B052AEF2963007F
:02400E00323F3F
:00000001FF
;PIC16F877A
;CRC=D921  CREATED="23-mar.-23 10:00"
